{
  "_format": "hh-sol-artifact-1",
  "contractName": "LauraAIMarketplace",
  "sourceName": "contracts/LauraAIMarketplace.sol",
  "abi": [
    {
      "inputs": [
        {
          "internalType": "address",
          "name": "_nftContract",
          "type": "address"
        }
      ],
      "stateMutability": "nonpayable",
      "type": "constructor"
    },
    {
      "inputs": [
        {
          "internalType": "address",
          "name": "owner",
          "type": "address"
        }
      ],
      "name": "OwnableInvalidOwner",
      "type": "error"
    },
    {
      "inputs": [
        {
          "internalType": "address",
          "name": "account",
          "type": "address"
        }
      ],
      "name": "OwnableUnauthorizedAccount",
      "type": "error"
    },
    {
      "inputs": [],
      "name": "ReentrancyGuardReentrantCall",
      "type": "error"
    },
    {
      "anonymous": false,
      "inputs": [
        {
          "indexed": true,
          "internalType": "address",
          "name": "owner",
          "type": "address"
        },
        {
          "indexed": false,
          "internalType": "uint256",
          "name": "amount",
          "type": "uint256"
        }
      ],
      "name": "FeesWithdrawn",
      "type": "event"
    },
    {
      "anonymous": false,
      "inputs": [
        {
          "indexed": true,
          "internalType": "uint256",
          "name": "tokenId",
          "type": "uint256"
        },
        {
          "indexed": true,
          "internalType": "address",
          "name": "seller",
          "type": "address"
        }
      ],
      "name": "ItemDelisted",
      "type": "event"
    },
    {
      "anonymous": false,
      "inputs": [
        {
          "indexed": true,
          "internalType": "uint256",
          "name": "tokenId",
          "type": "uint256"
        },
        {
          "indexed": true,
          "internalType": "address",
          "name": "seller",
          "type": "address"
        },
        {
          "indexed": false,
          "internalType": "uint256",
          "name": "price",
          "type": "uint256"
        }
      ],
      "name": "ItemListed",
      "type": "event"
    },
    {
      "anonymous": false,
      "inputs": [
        {
          "indexed": true,
          "internalType": "uint256",
          "name": "tokenId",
          "type": "uint256"
        },
        {
          "indexed": true,
          "internalType": "address",
          "name": "seller",
          "type": "address"
        },
        {
          "indexed": true,
          "internalType": "address",
          "name": "buyer",
          "type": "address"
        },
        {
          "indexed": false,
          "internalType": "uint256",
          "name": "price",
          "type": "uint256"
        },
        {
          "indexed": false,
          "internalType": "uint256",
          "name": "platformFee",
          "type": "uint256"
        }
      ],
      "name": "ItemSold",
      "type": "event"
    },
    {
      "anonymous": false,
      "inputs": [
        {
          "indexed": true,
          "internalType": "address",
          "name": "previousOwner",
          "type": "address"
        },
        {
          "indexed": true,
          "internalType": "address",
          "name": "newOwner",
          "type": "address"
        }
      ],
      "name": "OwnershipTransferred",
      "type": "event"
    },
    {
      "inputs": [],
      "name": "BPS_DENOMINATOR",
      "outputs": [
        {
          "internalType": "uint256",
          "name": "",
          "type": "uint256"
        }
      ],
      "stateMutability": "view",
      "type": "function"
    },
    {
      "inputs": [],
      "name": "PLATFORM_FEE_BPS",
      "outputs": [
        {
          "internalType": "uint256",
          "name": "",
          "type": "uint256"
        }
      ],
      "stateMutability": "view",
      "type": "function"
    },
    {
      "inputs": [],
      "name": "accumulatedFees",
      "outputs": [
        {
          "internalType": "uint256",
          "name": "",
          "type": "uint256"
        }
      ],
      "stateMutability": "view",
      "type": "function"
    },
    {
      "inputs": [
        {
          "internalType": "uint256",
          "name": "tokenId",
          "type": "uint256"
        }
      ],
      "name": "buyItem",
      "outputs": [],
      "stateMutability": "payable",
      "type": "function"
    },
    {
      "inputs": [
        {
          "internalType": "uint256",
          "name": "tokenId",
          "type": "uint256"
        }
      ],
      "name": "delistItem",
      "outputs": [],
      "stateMutability": "nonpayable",
      "type": "function"
    },
    {
      "inputs": [],
      "name": "getActiveListings",
      "outputs": [
        {
          "internalType": "uint256[]",
          "name": "tokenIds",
          "type": "uint256[]"
        },
        {
          "internalType": "address[]",
          "name": "sellers",
          "type": "address[]"
        },
        {
          "internalType": "uint256[]",
          "name": "prices",
          "type": "uint256[]"
        }
      ],
      "stateMutability": "view",
      "type": "function"
    },
    {
      "inputs": [],
      "name": "getActiveListingsCount",
      "outputs": [
        {
          "internalType": "uint256",
          "name": "",
          "type": "uint256"
        }
      ],
      "stateMutability": "view",
      "type": "function"
    },
    {
      "inputs": [
        {
          "internalType": "uint256",
          "name": "tokenId",
          "type": "uint256"
        }
      ],
      "name": "getListing",
      "outputs": [
        {
          "internalType": "address",
          "name": "seller",
          "type": "address"
        },
        {
          "internalType": "uint256",
          "name": "price",
          "type": "uint256"
        },
        {
          "internalType": "bool",
          "name": "active",
          "type": "bool"
        }
      ],
      "stateMutability": "view",
      "type": "function"
    },
    {
      "inputs": [
        {
          "internalType": "uint256",
          "name": "tokenId",
          "type": "uint256"
        },
        {
          "internalType": "uint256",
          "name": "price",
          "type": "uint256"
        }
      ],
      "name": "listItem",
      "outputs": [],
      "stateMutability": "nonpayable",
      "type": "function"
    },
    {
      "inputs": [
        {
          "internalType": "uint256",
          "name": "",
          "type": "uint256"
        }
      ],
      "name": "listings",
      "outputs": [
        {
          "internalType": "address",
          "name": "seller",
          "type": "address"
        },
        {
          "internalType": "uint256",
          "name": "price",
          "type": "uint256"
        },
        {
          "internalType": "bool",
          "name": "active",
          "type": "bool"
        }
      ],
      "stateMutability": "view",
      "type": "function"
    },
    {
      "inputs": [],
      "name": "nftContract",
      "outputs": [
        {
          "internalType": "contract IERC721",
          "name": "",
          "type": "address"
        }
      ],
      "stateMutability": "view",
      "type": "function"
    },
    {
      "inputs": [],
      "name": "owner",
      "outputs": [
        {
          "internalType": "address",
          "name": "",
          "type": "address"
        }
      ],
      "stateMutability": "view",
      "type": "function"
    },
    {
      "inputs": [],
      "name": "renounceOwnership",
      "outputs": [],
      "stateMutability": "nonpayable",
      "type": "function"
    },
    {
      "inputs": [
        {
          "internalType": "address",
          "name": "newOwner",
          "type": "address"
        }
      ],
      "name": "transferOwnership",
      "outputs": [],
      "stateMutability": "nonpayable",
      "type": "function"
    },
    {
      "inputs": [],
      "name": "withdrawFees",
      "outputs": [],
      "stateMutability": "nonpayable",
      "type": "function"
    }
  ],
  "bytecode": "0x60a060405234801561001057600080fd5b506040516125d23803806125d28339818101604052810190610032919061028c565b33600073ffffffffffffffffffffffffffffffffffffffff168173ffffffffffffffffffffffffffffffffffffffff16036100a55760006040517f1e4fbdf700000000000000000000000000000000000000000000000000000000815260040161009c91906102c8565b60405180910390fd5b6100b48161016560201b60201c565b5060018081905550600073ffffffffffffffffffffffffffffffffffffffff168173ffffffffffffffffffffffffffffffffffffffff160361012b576040517f08c379a000000000000000000000000000000000000000000000000000000000815260040161012290610340565b60405180910390fd5b8073ffffffffffffffffffffffffffffffffffffffff1660808173ffffffffffffffffffffffffffffffffffffffff168152505050610360565b60008060009054906101000a900473ffffffffffffffffffffffffffffffffffffffff169050816000806101000a81548173ffffffffffffffffffffffffffffffffffffffff021916908373ffffffffffffffffffffffffffffffffffffffff1602179055508173ffffffffffffffffffffffffffffffffffffffff168173ffffffffffffffffffffffffffffffffffffffff167f8be0079c531659141344cd1fd0a4f28419497f9722a3daafe3b4186f6b6457e060405160405180910390a35050565b600080fd5b600073ffffffffffffffffffffffffffffffffffffffff82169050919050565b60006102598261022e565b9050919050565b6102698161024e565b811461027457600080fd5b50565b60008151905061028681610260565b92915050565b6000602082840312156102a2576102a1610229565b5b60006102b084828501610277565b91505092915050565b6102c28161024e565b82525050565b60006020820190506102dd60008301846102b9565b92915050565b600082825260208201905092915050565b7f496e76616c6964204e465420636f6e7472616374206164647265737300000000600082015250565b600061032a601c836102e3565b9150610335826102f4565b602082019050919050565b600060208201905081810360008301526103598161031d565b9050919050565b60805161223b6103976000396000818161091b01528181610a2201528181610ad901528181610d960152610fff015261223b6000f3fe6080604052600436106100e85760003560e01c806387c35bc01161008a578063de74e57b11610059578063de74e57b146102b0578063e1a45218146102ef578063e7fb74c71461031a578063f2fde38b14610336576100e8565b806387c35bc014610204578063883efa67146102315780638da5cb5b1461025a578063d56d229d14610285576100e8565b8063539aa77f116100c6578063539aa77f1461016c578063587f5ed714610197578063715018a6146101c25780637b55927c146101d9576100e8565b806310061631146100ed578063107a274a14610116578063476343ee14610155575b600080fd5b3480156100f957600080fd5b50610114600480360381019061010f91906115ae565b61035f565b005b34801561012257600080fd5b5061013d600480360381019061013891906115ae565b6104c7565b60405161014c93929190611646565b60405180910390f35b34801561016157600080fd5b5061016a61052c565b005b34801561017857600080fd5b50610181610692565b60405161018e919061167d565b60405180910390f35b3480156101a357600080fd5b506101ac610697565b6040516101b9919061167d565b60405180910390f35b3480156101ce57600080fd5b506101d761069d565b005b3480156101e557600080fd5b506101ee6106b1565b6040516101fb919061167d565b60405180910390f35b34801561021057600080fd5b506102196106be565b60405161022893929190611814565b60405180910390f35b34801561023d57600080fd5b5061025860048036038101906102539190611860565b6108bf565b005b34801561026657600080fd5b5061026f610d6b565b60405161027c91906118a0565b60405180910390f35b34801561029157600080fd5b5061029a610d94565b6040516102a7919061191a565b60405180910390f35b3480156102bc57600080fd5b506102d760048036038101906102d291906115ae565b610db8565b6040516102e693929190611646565b60405180910390f35b3480156102fb57600080fd5b50610304610e0f565b604051610311919061167d565b60405180910390f35b610334600480360381019061032f91906115ae565b610e15565b005b34801561034257600080fd5b5061035d60048036038101906103589190611961565b611272565b005b60006002600083815260200190815260200160002090508060020160009054906101000a900460ff166103c7576040517f08c379a00000000000000000000000000000000000000000000000000000000081526004016103be906119eb565b60405180910390fd5b3373ffffffffffffffffffffffffffffffffffffffff168160000160009054906101000a900473ffffffffffffffffffffffffffffffffffffffff1673ffffffffffffffffffffffffffffffffffffffff1614610459576040517f08c379a000000000000000000000000000000000000000000000000000000000815260040161045090611a57565b60405180910390fd5b60008160020160006101000a81548160ff02191690831515021790555061047f826112f8565b3373ffffffffffffffffffffffffffffffffffffffff16827fcd69f8512d5dbb6c8101e48b86eee5edf783a51bc5e597bc5c832971e40fc91360405160405180910390a35050565b6000806000806002600086815260200190815260200160002090508060000160009054906101000a900473ffffffffffffffffffffffffffffffffffffffff1681600101548260020160009054906101000a900460ff16935093509350509193909250565b6105346113d1565b600060055490506000811161057e576040517f08c379a000000000000000000000000000000000000000000000000000000000815260040161057590611ac3565b60405180910390fd5b60006005819055506000610590610d6b565b73ffffffffffffffffffffffffffffffffffffffff16826040516105b390611b14565b60006040518083038185875af1925050503d80600081146105f0576040519150601f19603f3d011682016040523d82523d6000602084013e6105f5565b606091505b5050905080610639576040517f08c379a000000000000000000000000000000000000000000000000000000000815260040161063090611b75565b60405180910390fd5b610641610d6b565b73ffffffffffffffffffffffffffffffffffffffff167fc0819c13be868895eb93e40eaceb96de976442fa1d404e5c55f14bb65a8c489a83604051610686919061167d565b60405180910390a25050565b60fa81565b60055481565b6106a56113d1565b6106af6000611458565b565b6000600380549050905090565b6060806060600060038054905090508067ffffffffffffffff8111156106e7576106e6611b95565b5b6040519080825280602002602001820160405280156107155781602001602082028036833780820191505090505b5093508067ffffffffffffffff81111561073257610731611b95565b5b6040519080825280602002602001820160405280156107605781602001602082028036833780820191505090505b5092508067ffffffffffffffff81111561077d5761077c611b95565b5b6040519080825280602002602001820160405280156107ab5781602001602082028036833780820191505090505b50915060005b818110156108b8576000600382815481106107cf576107ce611bc4565b5b9060005260206000200154905060006002600083815260200190815260200160002090508187848151811061080757610806611bc4565b5b6020026020010181815250508060000160009054906101000a900473ffffffffffffffffffffffffffffffffffffffff1686848151811061084b5761084a611bc4565b5b602002602001019073ffffffffffffffffffffffffffffffffffffffff16908173ffffffffffffffffffffffffffffffffffffffff1681525050806001015485848151811061089d5761089c611bc4565b5b602002602001018181525050505080806001019150506107b1565b5050909192565b60008111610902576040517f08c379a00000000000000000000000000000000000000000000000000000000081526004016108f990611c3f565b60405180910390fd5b3373ffffffffffffffffffffffffffffffffffffffff167f000000000000000000000000000000000000000000000000000000000000000073ffffffffffffffffffffffffffffffffffffffff16636352211e846040518263ffffffff1660e01b8152600401610972919061167d565b602060405180830381865afa15801561098f573d6000803e3d6000fd5b505050506040513d601f19601f820116820180604052508101906109b39190611c74565b73ffffffffffffffffffffffffffffffffffffffff1614610a09576040517f08c379a0000000000000000000000000000000000000000000000000000000008152600401610a0090611ced565b60405180910390fd5b3073ffffffffffffffffffffffffffffffffffffffff167f000000000000000000000000000000000000000000000000000000000000000073ffffffffffffffffffffffffffffffffffffffff1663081812fc846040518263ffffffff1660e01b8152600401610a79919061167d565b602060405180830381865afa158015610a96573d6000803e3d6000fd5b505050506040513d601f19601f82011682018060405250810190610aba9190611c74565b73ffffffffffffffffffffffffffffffffffffffff161480610b7457507f000000000000000000000000000000000000000000000000000000000000000073ffffffffffffffffffffffffffffffffffffffff1663e985e9c533306040518363ffffffff1660e01b8152600401610b32929190611d0d565b602060405180830381865afa158015610b4f573d6000803e3d6000fd5b505050506040513d601f19601f82011682018060405250810190610b739190611d62565b5b610bb3576040517f08c379a0000000000000000000000000000000000000000000000000000000008152600401610baa90611ddb565b60405180910390fd5b6002600083815260200190815260200160002060020160009054906101000a900460ff1615610c17576040517f08c379a0000000000000000000000000000000000000000000000000000000008152600401610c0e90611e47565b60405180910390fd5b60405180606001604052803373ffffffffffffffffffffffffffffffffffffffff168152602001828152602001600115158152506002600084815260200190815260200160002060008201518160000160006101000a81548173ffffffffffffffffffffffffffffffffffffffff021916908373ffffffffffffffffffffffffffffffffffffffff1602179055506020820151816001015560408201518160020160006101000a81548160ff021916908315150217905550905050600380549050600460008481526020019081526020016000208190555060038290806001815401808255809150506001900390600052602060002001600090919091909150553373ffffffffffffffffffffffffffffffffffffffff16827fc93edc6ee14cd6c0c2842099adfa8953b237dbdad304ba28e96dce8a7f2a828c83604051610d5f919061167d565b60405180910390a35050565b60008060009054906101000a900473ffffffffffffffffffffffffffffffffffffffff16905090565b7f000000000000000000000000000000000000000000000000000000000000000081565b60026020528060005260406000206000915090508060000160009054906101000a900473ffffffffffffffffffffffffffffffffffffffff16908060010154908060020160009054906101000a900460ff16905083565b61271081565b610e1d61151c565b60006002600083815260200190815260200160002090508060020160009054906101000a900460ff16610e85576040517f08c379a0000000000000000000000000000000000000000000000000000000008152600401610e7c906119eb565b60405180910390fd5b8060010154341015610ecc576040517f08c379a0000000000000000000000000000000000000000000000000000000008152600401610ec390611eb3565b60405180910390fd5b3373ffffffffffffffffffffffffffffffffffffffff168160000160009054906101000a900473ffffffffffffffffffffffffffffffffffffffff1673ffffffffffffffffffffffffffffffffffffffff1603610f5e576040517f08c379a0000000000000000000000000000000000000000000000000000000008152600401610f5590611f1f565b60405180910390fd5b60008160000160009054906101000a900473ffffffffffffffffffffffffffffffffffffffff169050600082600101549050600061271060fa83610fa29190611f6e565b610fac9190611fdf565b905060008183610fbc9190612010565b905060008560020160006101000a81548160ff021916908315150217905550610fe4866112f8565b8160056000828254610ff69190612044565b925050819055507f000000000000000000000000000000000000000000000000000000000000000073ffffffffffffffffffffffffffffffffffffffff166342842e0e8533896040518463ffffffff1660e01b815260040161105a93929190612078565b600060405180830381600087803b15801561107457600080fd5b505af1158015611088573d6000803e3d6000fd5b5050505060008473ffffffffffffffffffffffffffffffffffffffff16826040516110b290611b14565b60006040518083038185875af1925050503d80600081146110ef576040519150601f19603f3d011682016040523d82523d6000602084013e6110f4565b606091505b5050905080611138576040517f08c379a000000000000000000000000000000000000000000000000000000000815260040161112f90612121565b60405180910390fd5b833411156111f95760003373ffffffffffffffffffffffffffffffffffffffff1685346111659190612010565b60405161117190611b14565b60006040518083038185875af1925050503d80600081146111ae576040519150601f19603f3d011682016040523d82523d6000602084013e6111b3565b606091505b50509050806111f7576040517f08c379a00000000000000000000000000000000000000000000000000000000081526004016111ee9061218d565b60405180910390fd5b505b3373ffffffffffffffffffffffffffffffffffffffff168573ffffffffffffffffffffffffffffffffffffffff16887fd2b8648ec6ff6bd9ed10162d6ec424ae792c12820a475e8ef52f23fd7da4f1eb87876040516112599291906121ad565b60405180910390a450505050505061126f611562565b50565b61127a6113d1565b600073ffffffffffffffffffffffffffffffffffffffff168173ffffffffffffffffffffffffffffffffffffffff16036112ec5760006040517f1e4fbdf70000000000000000000000000000000000000000000000000000000081526004016112e391906118a0565b60405180910390fd5b6112f581611458565b50565b600060046000838152602001908152602001600020549050600060016003805490506113249190612010565b905080821461138d5760006003828154811061134357611342611bc4565b5b90600052602060002001549050806003848154811061136557611364611bc4565b5b9060005260206000200181905550826004600083815260200190815260200160002081905550505b600380548061139f5761139e6121d6565b5b600190038181906000526020600020016000905590556004600084815260200190815260200160002060009055505050565b6113d961156b565b73ffffffffffffffffffffffffffffffffffffffff166113f7610d6b565b73ffffffffffffffffffffffffffffffffffffffff16146114565761141a61156b565b6040517f118cdaa700000000000000000000000000000000000000000000000000000000815260040161144d91906118a0565b60405180910390fd5b565b60008060009054906101000a900473ffffffffffffffffffffffffffffffffffffffff169050816000806101000a81548173ffffffffffffffffffffffffffffffffffffffff021916908373ffffffffffffffffffffffffffffffffffffffff1602179055508173ffffffffffffffffffffffffffffffffffffffff168173ffffffffffffffffffffffffffffffffffffffff167f8be0079c531659141344cd1fd0a4f28419497f9722a3daafe3b4186f6b6457e060405160405180910390a35050565b600260015403611558576040517f3ee5aeb500000000000000000000000000000000000000000000000000000000815260040160405180910390fd5b6002600181905550565b60018081905550565b600033905090565b600080fd5b6000819050919050565b61158b81611578565b811461159657600080fd5b50565b6000813590506115a881611582565b92915050565b6000602082840312156115c4576115c3611573565b5b60006115d284828501611599565b91505092915050565b600073ffffffffffffffffffffffffffffffffffffffff82169050919050565b6000611606826115db565b9050919050565b611616816115fb565b82525050565b61162581611578565b82525050565b60008115159050919050565b6116408161162b565b82525050565b600060608201905061165b600083018661160d565b611668602083018561161c565b6116756040830184611637565b949350505050565b6000602082019050611692600083018461161c565b92915050565b600081519050919050565b600082825260208201905092915050565b6000819050602082019050919050565b6116cd81611578565b82525050565b60006116df83836116c4565b60208301905092915050565b6000602082019050919050565b600061170382611698565b61170d81856116a3565b9350611718836116b4565b8060005b8381101561174957815161173088826116d3565b975061173b836116eb565b92505060018101905061171c565b5085935050505092915050565b600081519050919050565b600082825260208201905092915050565b6000819050602082019050919050565b61178b816115fb565b82525050565b600061179d8383611782565b60208301905092915050565b6000602082019050919050565b60006117c182611756565b6117cb8185611761565b93506117d683611772565b8060005b838110156118075781516117ee8882611791565b97506117f9836117a9565b9250506001810190506117da565b5085935050505092915050565b6000606082019050818103600083015261182e81866116f8565b9050818103602083015261184281856117b6565b9050818103604083015261185681846116f8565b9050949350505050565b6000806040838503121561187757611876611573565b5b600061188585828601611599565b925050602061189685828601611599565b9150509250929050565b60006020820190506118b5600083018461160d565b92915050565b6000819050919050565b60006118e06118db6118d6846115db565b6118bb565b6115db565b9050919050565b60006118f2826118c5565b9050919050565b6000611904826118e7565b9050919050565b611914816118f9565b82525050565b600060208201905061192f600083018461190b565b92915050565b61193e816115fb565b811461194957600080fd5b50565b60008135905061195b81611935565b92915050565b60006020828403121561197757611976611573565b5b60006119858482850161194c565b91505092915050565b600082825260208201905092915050565b7f4974656d206e6f74206c69737465640000000000000000000000000000000000600082015250565b60006119d5600f8361198e565b91506119e08261199f565b602082019050919050565b60006020820190508181036000830152611a04816119c8565b9050919050565b7f596f7520617265206e6f74207468652073656c6c657200000000000000000000600082015250565b6000611a4160168361198e565b9150611a4c82611a0b565b602082019050919050565b60006020820190508181036000830152611a7081611a34565b9050919050565b7f4e6f206665657320746f20776974686472617700000000000000000000000000600082015250565b6000611aad60138361198e565b9150611ab882611a77565b602082019050919050565b60006020820190508181036000830152611adc81611aa0565b9050919050565b600081905092915050565b50565b6000611afe600083611ae3565b9150611b0982611aee565b600082019050919050565b6000611b1f82611af1565b9150819050919050565b7f4661696c656420746f2077697468647261772066656573000000000000000000600082015250565b6000611b5f60178361198e565b9150611b6a82611b29565b602082019050919050565b60006020820190508181036000830152611b8e81611b52565b9050919050565b7f4e487b7100000000000000000000000000000000000000000000000000000000600052604160045260246000fd5b7f4e487b7100000000000000000000000000000000000000000000000000000000600052603260045260246000fd5b7f5072696365206d7573742062652067726561746572207468616e207a65726f00600082015250565b6000611c29601f8361198e565b9150611c3482611bf3565b602082019050919050565b60006020820190508181036000830152611c5881611c1c565b9050919050565b600081519050611c6e81611935565b92915050565b600060208284031215611c8a57611c89611573565b5b6000611c9884828501611c5f565b91505092915050565b7f596f7520646f6e2774206f776e2074686973204e465400000000000000000000600082015250565b6000611cd760168361198e565b9150611ce282611ca1565b602082019050919050565b60006020820190508181036000830152611d0681611cca565b9050919050565b6000604082019050611d22600083018561160d565b611d2f602083018461160d565b9392505050565b611d3f8161162b565b8114611d4a57600080fd5b50565b600081519050611d5c81611d36565b92915050565b600060208284031215611d7857611d77611573565b5b6000611d8684828501611d4d565b91505092915050565b7f4d61726b6574706c616365206e6f7420617070726f7665640000000000000000600082015250565b6000611dc560188361198e565b9150611dd082611d8f565b602082019050919050565b60006020820190508181036000830152611df481611db8565b9050919050565b7f4974656d20616c7265616479206c697374656400000000000000000000000000600082015250565b6000611e3160138361198e565b9150611e3c82611dfb565b602082019050919050565b60006020820190508181036000830152611e6081611e24565b9050919050565b7f496e73756666696369656e74207061796d656e74000000000000000000000000600082015250565b6000611e9d60148361198e565b9150611ea882611e67565b602082019050919050565b60006020820190508181036000830152611ecc81611e90565b9050919050565b7f43616e6e6f742062757920796f7572206f776e206974656d0000000000000000600082015250565b6000611f0960188361198e565b9150611f1482611ed3565b602082019050919050565b60006020820190508181036000830152611f3881611efc565b9050919050565b7f4e487b7100000000000000000000000000000000000000000000000000000000600052601160045260246000fd5b6000611f7982611578565b9150611f8483611578565b9250828202611f9281611578565b91508282048414831517611fa957611fa8611f3f565b5b5092915050565b7f4e487b7100000000000000000000000000000000000000000000000000000000600052601260045260246000fd5b6000611fea82611578565b9150611ff583611578565b92508261200557612004611fb0565b5b828204905092915050565b600061201b82611578565b915061202683611578565b925082820390508181111561203e5761203d611f3f565b5b92915050565b600061204f82611578565b915061205a83611578565b925082820190508082111561207257612071611f3f565b5b92915050565b600060608201905061208d600083018661160d565b61209a602083018561160d565b6120a7604083018461161c565b949350505050565b7f4661696c656420746f2073656e642070726f636565647320746f2073656c6c6560008201527f7200000000000000000000000000000000000000000000000000000000000000602082015250565b600061210b60218361198e565b9150612116826120af565b604082019050919050565b6000602082019050818103600083015261213a816120fe565b9050919050565b7f4661696c656420746f20726566756e6420657863657373000000000000000000600082015250565b600061217760178361198e565b915061218282612141565b602082019050919050565b600060208201905081810360008301526121a68161216a565b9050919050565b60006040820190506121c2600083018561161c565b6121cf602083018461161c565b9392505050565b7f4e487b7100000000000000000000000000000000000000000000000000000000600052603160045260246000fdfea26469706673582212205c90bb84e674d2c6c17fd5c76d6e0891ec30425212aa3576d2864ba3c16b6d2564736f6c634300081b0033",
  "linkReferences": {},
  "deployedLinkReferences": {}
}