{
  "_format": "hh-sol-artifact-1",
  "contractName": "LauraAIStaking",
  "sourceName": "contracts/LauraAIStaking.sol",
  "abi": [
    {
      "inputs": [
        {
          "internalType": "address",
          "name": "_lraToken",
          "type": "address"
        }
      ],
      "stateMutability": "nonpayable",
      "type": "constructor"
    },
    {
      "inputs": [
        {
          "internalType": "address",
          "name": "owner",
          "type": "address"
        }
      ],
      "name": "OwnableInvalidOwner",
      "type": "error"
    },
    {
      "inputs": [
        {
          "internalType": "address",
          "name": "account",
          "type": "address"
        }
      ],
      "name": "OwnableUnauthorizedAccount",
      "type": "error"
    },
    {
      "inputs": [],
      "name": "ReentrancyGuardReentrantCall",
      "type": "error"
    },
    {
      "inputs": [
        {
          "internalType": "address",
          "name": "token",
          "type": "address"
        }
      ],
      "name": "SafeERC20FailedOperation",
      "type": "error"
    },
    {
      "anonymous": false,
      "inputs": [
        {
          "indexed": true,
          "internalType": "address",
          "name": "previousOwner",
          "type": "address"
        },
        {
          "indexed": true,
          "internalType": "address",
          "name": "newOwner",
          "type": "address"
        }
      ],
      "name": "OwnershipTransferred",
      "type": "event"
    },
    {
      "anonymous": false,
      "inputs": [
        {
          "indexed": false,
          "internalType": "uint256",
          "name": "amount",
          "type": "uint256"
        }
      ],
      "name": "RewardPoolFunded",
      "type": "event"
    },
    {
      "anonymous": false,
      "inputs": [
        {
          "indexed": false,
          "internalType": "uint256",
          "name": "newRate",
          "type": "uint256"
        }
      ],
      "name": "RewardRateUpdated",
      "type": "event"
    },
    {
      "anonymous": false,
      "inputs": [
        {
          "indexed": true,
          "internalType": "address",
          "name": "user",
          "type": "address"
        },
        {
          "indexed": false,
          "internalType": "uint256",
          "name": "amount",
          "type": "uint256"
        }
      ],
      "name": "RewardsClaimed",
      "type": "event"
    },
    {
      "anonymous": false,
      "inputs": [
        {
          "indexed": true,
          "internalType": "address",
          "name": "user",
          "type": "address"
        },
        {
          "indexed": false,
          "internalType": "uint256",
          "name": "amount",
          "type": "uint256"
        },
        {
          "indexed": false,
          "internalType": "uint256",
          "name": "timestamp",
          "type": "uint256"
        }
      ],
      "name": "Staked",
      "type": "event"
    },
    {
      "anonymous": false,
      "inputs": [
        {
          "indexed": true,
          "internalType": "address",
          "name": "user",
          "type": "address"
        },
        {
          "indexed": false,
          "internalType": "uint256",
          "name": "amount",
          "type": "uint256"
        },
        {
          "indexed": false,
          "internalType": "uint256",
          "name": "timestamp",
          "type": "uint256"
        }
      ],
      "name": "Unstaked",
      "type": "event"
    },
    {
      "inputs": [],
      "name": "BPS_DENOMINATOR",
      "outputs": [
        {
          "internalType": "uint256",
          "name": "",
          "type": "uint256"
        }
      ],
      "stateMutability": "view",
      "type": "function"
    },
    {
      "inputs": [],
      "name": "LOCK_PERIOD",
      "outputs": [
        {
          "internalType": "uint256",
          "name": "",
          "type": "uint256"
        }
      ],
      "stateMutability": "view",
      "type": "function"
    },
    {
      "inputs": [],
      "name": "MULTIPLIER_BASE",
      "outputs": [
        {
          "internalType": "uint256",
          "name": "",
          "type": "uint256"
        }
      ],
      "stateMutability": "view",
      "type": "function"
    },
    {
      "inputs": [],
      "name": "MULTIPLIER_DIVISOR",
      "outputs": [
        {
          "internalType": "uint256",
          "name": "",
          "type": "uint256"
        }
      ],
      "stateMutability": "view",
      "type": "function"
    },
    {
      "inputs": [],
      "name": "MULTIPLIER_PRECISION",
      "outputs": [
        {
          "internalType": "uint256",
          "name": "",
          "type": "uint256"
        }
      ],
      "stateMutability": "view",
      "type": "function"
    },
    {
      "inputs": [],
      "name": "claimRewards",
      "outputs": [],
      "stateMutability": "nonpayable",
      "type": "function"
    },
    {
      "inputs": [
        {
          "internalType": "uint256",
          "name": "amount",
          "type": "uint256"
        }
      ],
      "name": "fundRewardPool",
      "outputs": [],
      "stateMutability": "nonpayable",
      "type": "function"
    },
    {
      "inputs": [
        {
          "internalType": "address",
          "name": "user",
          "type": "address"
        }
      ],
      "name": "getMultiplier",
      "outputs": [
        {
          "internalType": "uint256",
          "name": "",
          "type": "uint256"
        }
      ],
      "stateMutability": "view",
      "type": "function"
    },
    {
      "inputs": [
        {
          "internalType": "address",
          "name": "user",
          "type": "address"
        }
      ],
      "name": "getStakeInfo",
      "outputs": [
        {
          "internalType": "uint256",
          "name": "amount",
          "type": "uint256"
        },
        {
          "internalType": "uint256",
          "name": "stakedAt",
          "type": "uint256"
        },
        {
          "internalType": "uint256",
          "name": "unlockTime",
          "type": "uint256"
        },
        {
          "internalType": "uint256",
          "name": "multiplier",
          "type": "uint256"
        },
        {
          "internalType": "uint256",
          "name": "pendingRewards",
          "type": "uint256"
        }
      ],
      "stateMutability": "view",
      "type": "function"
    },
    {
      "inputs": [
        {
          "internalType": "address",
          "name": "user",
          "type": "address"
        }
      ],
      "name": "getTimeUntilUnlock",
      "outputs": [
        {
          "internalType": "uint256",
          "name": "",
          "type": "uint256"
        }
      ],
      "stateMutability": "view",
      "type": "function"
    },
    {
      "inputs": [
        {
          "internalType": "address",
          "name": "user",
          "type": "address"
        }
      ],
      "name": "isUnlocked",
      "outputs": [
        {
          "internalType": "bool",
          "name": "",
          "type": "bool"
        }
      ],
      "stateMutability": "view",
      "type": "function"
    },
    {
      "inputs": [],
      "name": "lraToken",
      "outputs": [
        {
          "internalType": "contract IERC20",
          "name": "",
          "type": "address"
        }
      ],
      "stateMutability": "view",
      "type": "function"
    },
    {
      "inputs": [],
      "name": "owner",
      "outputs": [
        {
          "internalType": "address",
          "name": "",
          "type": "address"
        }
      ],
      "stateMutability": "view",
      "type": "function"
    },
    {
      "inputs": [],
      "name": "renounceOwnership",
      "outputs": [],
      "stateMutability": "nonpayable",
      "type": "function"
    },
    {
      "inputs": [],
      "name": "rewardPool",
      "outputs": [
        {
          "internalType": "uint256",
          "name": "",
          "type": "uint256"
        }
      ],
      "stateMutability": "view",
      "type": "function"
    },
    {
      "inputs": [],
      "name": "rewardRateBps",
      "outputs": [
        {
          "internalType": "uint256",
          "name": "",
          "type": "uint256"
        }
      ],
      "stateMutability": "view",
      "type": "function"
    },
    {
      "inputs": [
        {
          "internalType": "uint256",
          "name": "newRateBps",
          "type": "uint256"
        }
      ],
      "name": "setRewardRate",
      "outputs": [],
      "stateMutability": "nonpayable",
      "type": "function"
    },
    {
      "inputs": [
        {
          "internalType": "uint256",
          "name": "amount",
          "type": "uint256"
        }
      ],
      "name": "stake",
      "outputs": [],
      "stateMutability": "nonpayable",
      "type": "function"
    },
    {
      "inputs": [
        {
          "internalType": "address",
          "name": "",
          "type": "address"
        }
      ],
      "name": "stakes",
      "outputs": [
        {
          "internalType": "uint256",
          "name": "amount",
          "type": "uint256"
        },
        {
          "internalType": "uint256",
          "name": "stakedAt",
          "type": "uint256"
        },
        {
          "internalType": "uint256",
          "name": "lastRewardClaim",
          "type": "uint256"
        },
        {
          "internalType": "uint256",
          "name": "pendingRewards",
          "type": "uint256"
        }
      ],
      "stateMutability": "view",
      "type": "function"
    },
    {
      "inputs": [],
      "name": "totalStaked",
      "outputs": [
        {
          "internalType": "uint256",
          "name": "",
          "type": "uint256"
        }
      ],
      "stateMutability": "view",
      "type": "function"
    },
    {
      "inputs": [
        {
          "internalType": "address",
          "name": "newOwner",
          "type": "address"
        }
      ],
      "name": "transferOwnership",
      "outputs": [],
      "stateMutability": "nonpayable",
      "type": "function"
    },
    {
      "inputs": [
        {
          "internalType": "uint256",
          "name": "amount",
          "type": "uint256"
        }
      ],
      "name": "unstake",
      "outputs": [],
      "stateMutability": "nonpayable",
      "type": "function"
    }
  ],
  "bytecode": "0x60a06040526104e260025534801561001657600080fd5b50604051611d56380380611d5683398181016040528101906100389190610292565b33600073ffffffffffffffffffffffffffffffffffffffff168173ffffffffffffffffffffffffffffffffffffffff16036100ab5760006040517f1e4fbdf70000000000000000000000000000000000000000000000000000000081526004016100a291906102ce565b60405180910390fd5b6100ba8161016b60201b60201c565b5060018081905550600073ffffffffffffffffffffffffffffffffffffffff168173ffffffffffffffffffffffffffffffffffffffff1603610131576040517f08c379a000000000000000000000000000000000000000000000000000000000815260040161012890610346565b60405180910390fd5b8073ffffffffffffffffffffffffffffffffffffffff1660808173ffffffffffffffffffffffffffffffffffffffff168152505050610366565b60008060009054906101000a900473ffffffffffffffffffffffffffffffffffffffff169050816000806101000a81548173ffffffffffffffffffffffffffffffffffffffff021916908373ffffffffffffffffffffffffffffffffffffffff1602179055508173ffffffffffffffffffffffffffffffffffffffff168173ffffffffffffffffffffffffffffffffffffffff167f8be0079c531659141344cd1fd0a4f28419497f9722a3daafe3b4186f6b6457e060405160405180910390a35050565b600080fd5b600073ffffffffffffffffffffffffffffffffffffffff82169050919050565b600061025f82610234565b9050919050565b61026f81610254565b811461027a57600080fd5b50565b60008151905061028c81610266565b92915050565b6000602082840312156102a8576102a761022f565b5b60006102b68482850161027d565b91505092915050565b6102c881610254565b82525050565b60006020820190506102e360008301846102bf565b92915050565b600082825260208201905092915050565b7f496e76616c696420746f6b656e20616464726573730000000000000000000000600082015250565b60006103306015836102e9565b915061033b826102fa565b602082019050919050565b6000602082019050818103600083015261035f81610323565b9050919050565b6080516119b961039d60003960008181610494015281816106d001528181610888015281816109280152610a8301526119b96000f3fe608060405234801561001057600080fd5b50600436106101425760003560e01c80638da5cb5b116100b8578063c34531531161007c578063c345315314610330578063d661dd3114610364578063e1a4521814610382578063e231dc27146103a0578063f2fde38b146103d0578063f97136af146103ec57610142565b80638da5cb5b1461028c5780639e447fc6146102aa578063a694fc3a146102c6578063a9d637e1146102e2578063b309483a1461031257610142565b8063372500ab1161010a578063372500ab146102005780634344ec711461020a57806366666aa914610228578063715018a61461024657806373face8614610250578063817b1cd21461026e57610142565b806316934fc4146101475780631820cabb1461017a5780631d583e0d146101985780632bbf532a146101b45780632e17de78146101e4575b600080fd5b610161600480360381019061015c91906112fc565b61040a565b6040516101719493929190611342565b60405180910390f35b61018261043a565b60405161018f9190611387565b60405180910390f35b6101b260048036038101906101ad91906113ce565b610441565b005b6101ce60048036038101906101c991906112fc565b61052c565b6040516101db9190611416565b60405180910390f35b6101fe60048036038101906101f991906113ce565b6105a5565b005b610208610770565b005b610212610926565b60405161021f9190611490565b60405180910390f35b61023061094a565b60405161023d9190611387565b60405180910390f35b61024e610950565b005b610258610964565b6040516102659190611387565b60405180910390f35b61027661096a565b6040516102839190611387565b60405180910390f35b610294610970565b6040516102a191906114ba565b60405180910390f35b6102c460048036038101906102bf91906113ce565b610999565b005b6102e060048036038101906102db91906113ce565b610a27565b005b6102fc60048036038101906102f791906112fc565b610bad565b6040516103099190611387565b60405180910390f35b61031a610c01565b6040516103279190611387565b60405180910390f35b61034a600480360381019061034591906112fc565b610c06565b60405161035b9594939291906114d5565b60405180910390f35b61036c610ca6565b6040516103799190611387565b60405180910390f35b61038a610cac565b6040516103979190611387565b60405180910390f35b6103ba60048036038101906103b591906112fc565b610cb2565b6040516103c79190611387565b60405180910390f35b6103ea60048036038101906103e591906112fc565b610d4b565b005b6103f4610dd1565b6040516104019190611387565b60405180910390f35b60036020528060005260406000206000915090508060000154908060010154908060020154908060030154905084565b62093a8081565b610449610dd6565b6000811161048c576040517f08c379a000000000000000000000000000000000000000000000000000000000815260040161048390611585565b60405180910390fd5b6104d93330837f000000000000000000000000000000000000000000000000000000000000000073ffffffffffffffffffffffffffffffffffffffff16610e5d909392919063ffffffff16565b80600560008282546104eb91906115d4565b925050819055507fb1d234dd8081b3e00565c8b359ca6fa117fc7b024f75d85b6830b190bef5c76b816040516105219190611387565b60405180910390a150565b600080600360008473ffffffffffffffffffffffffffffffffffffffff1673ffffffffffffffffffffffffffffffffffffffff168152602001908152602001600020905060008160000154036105865760019150506105a0565b62093a80816001015461059991906115d4565b4210159150505b919050565b6105ad610edf565b6000600360003373ffffffffffffffffffffffffffffffffffffffff1673ffffffffffffffffffffffffffffffffffffffff16815260200190815260200160002090508181600001541015610637576040517f08c379a000000000000000000000000000000000000000000000000000000000815260040161062e90611654565b60405180910390fd5b62093a80816001015461064a91906115d4565b42101561068c576040517f08c379a0000000000000000000000000000000000000000000000000000000008152600401610683906116c0565b60405180910390fd5b61069533610f25565b818160000160008282546106a991906116e0565b9250508190555081600460008282546106c291906116e0565b9250508190555061071433837f000000000000000000000000000000000000000000000000000000000000000073ffffffffffffffffffffffffffffffffffffffff16610fa69092919063ffffffff16565b3373ffffffffffffffffffffffffffffffffffffffff167f7fc4727e062e336010f2c282598ef5f14facb3de68cf8195c2f23e1454b2b74e834260405161075c929190611714565b60405180910390a25061076d611025565b50565b610778610edf565b61078133610f25565b6000600360003373ffffffffffffffffffffffffffffffffffffffff1673ffffffffffffffffffffffffffffffffffffffff168152602001908152602001600020905060008160030154905060008111610810576040517f08c379a000000000000000000000000000000000000000000000000000000000815260040161080790611789565b60405180910390fd5b806005541015610855576040517f08c379a000000000000000000000000000000000000000000000000000000000815260040161084c906117f5565b60405180910390fd5b60008260030181905550428260020181905550806005600082825461087a91906116e0565b925050819055506108cc33827f000000000000000000000000000000000000000000000000000000000000000073ffffffffffffffffffffffffffffffffffffffff16610fa69092919063ffffffff16565b3373ffffffffffffffffffffffffffffffffffffffff167ffc30cddea38e2bf4d6ea7d3f9ed3b6ad7f176419f4963bd81318067a4aee73fe826040516109129190611387565b60405180910390a25050610924611025565b565b7f000000000000000000000000000000000000000000000000000000000000000081565b60055481565b610958610dd6565b610962600061102e565b565b60025481565b60045481565b60008060009054906101000a900473ffffffffffffffffffffffffffffffffffffffff16905090565b6109a1610dd6565b6113888111156109e6576040517f08c379a00000000000000000000000000000000000000000000000000000000081526004016109dd90611861565b60405180910390fd5b806002819055507f41d466ebd06fb97e7786086ac8b69b7eb7da798592036251291d34e9791cde0181604051610a1c9190611387565b60405180910390a150565b610a2f610edf565b60008111610a72576040517f08c379a0000000000000000000000000000000000000000000000000000000008152600401610a6990611585565b60405180910390fd5b610a7b33610f25565b610ac83330837f000000000000000000000000000000000000000000000000000000000000000073ffffffffffffffffffffffffffffffffffffffff16610e5d909392919063ffffffff16565b6000600360003373ffffffffffffffffffffffffffffffffffffffff1673ffffffffffffffffffffffffffffffffffffffff168152602001908152602001600020905081816000016000828254610b1f91906115d4565b925050819055504281600101819055504281600201819055508160046000828254610b4a91906115d4565b925050819055503373ffffffffffffffffffffffffffffffffffffffff167f1449c6dd7851abc30abf37f57715f492010519147cc2652fbc38202c18a6ee908342604051610b99929190611714565b60405180910390a250610baa611025565b50565b6000610bfa600360008473ffffffffffffffffffffffffffffffffffffffff1673ffffffffffffffffffffffffffffffffffffffff168152602001908152602001600020600001546110f2565b9050919050565b606481565b600080600080600080600360008873ffffffffffffffffffffffffffffffffffffffff1673ffffffffffffffffffffffffffffffffffffffff1681526020019081526020016000209050806000015495508060010154945062093a808160010154610c7191906115d4565b9350610c8081600001546110f2565b9250610c8b87611138565b8160030154610c9a91906115d4565b91505091939590929450565b61138881565b61271081565b600080600360008473ffffffffffffffffffffffffffffffffffffffff1673ffffffffffffffffffffffffffffffffffffffff16815260200190815260200160002090506000816000015403610d0c576000915050610d46565b600062093a808260010154610d2191906115d4565b9050804210610d3557600092505050610d46565b4281610d4191906116e0565b925050505b919050565b610d53610dd6565b600073ffffffffffffffffffffffffffffffffffffffff168173ffffffffffffffffffffffffffffffffffffffff1603610dc55760006040517f1e4fbdf7000000000000000000000000000000000000000000000000000000008152600401610dbc91906114ba565b60405180910390fd5b610dce8161102e565b50565b606481565b610dde6111ef565b73ffffffffffffffffffffffffffffffffffffffff16610dfc610970565b73ffffffffffffffffffffffffffffffffffffffff1614610e5b57610e1f6111ef565b6040517f118cdaa7000000000000000000000000000000000000000000000000000000008152600401610e5291906114ba565b60405180910390fd5b565b610ed9848573ffffffffffffffffffffffffffffffffffffffff166323b872dd868686604051602401610e9293929190611881565b604051602081830303815290604052915060e01b6020820180517bffffffffffffffffffffffffffffffffffffffffffffffffffffffff83818316178352505050506111f7565b50505050565b600260015403610f1b576040517f3ee5aeb500000000000000000000000000000000000000000000000000000000815260040160405180910390fd5b6002600181905550565b6000600360008373ffffffffffffffffffffffffffffffffffffffff1673ffffffffffffffffffffffffffffffffffffffff1681526020019081526020016000209050600081600001541115610f9957610f7e82611138565b816003016000828254610f9191906115d4565b925050819055505b4281600201819055505050565b611020838473ffffffffffffffffffffffffffffffffffffffff1663a9059cbb8585604051602401610fd99291906118b8565b604051602081830303815290604052915060e01b6020820180517bffffffffffffffffffffffffffffffffffffffffffffffffffffffff83818316178352505050506111f7565b505050565b60018081905550565b60008060009054906101000a900473ffffffffffffffffffffffffffffffffffffffff169050816000806101000a81548173ffffffffffffffffffffffffffffffffffffffff021916908373ffffffffffffffffffffffffffffffffffffffff1602179055508173ffffffffffffffffffffffffffffffffffffffff168173ffffffffffffffffffffffffffffffffffffffff167f8be0079c531659141344cd1fd0a4f28419497f9722a3daafe3b4186f6b6457e060405160405180910390a35050565b60008082036111045760649050611133565b600061138860648461111691906118e1565b6111209190611952565b905080606461112f91906115d4565b9150505b919050565b600080600360008473ffffffffffffffffffffffffffffffffffffffff1673ffffffffffffffffffffffffffffffffffffffff168152602001908152602001600020905060008160000154036111925760009150506111ea565b60008160020154426111a491906116e0565b905060006127106301e133806111ba91906118e1565b8260025485600001546111cd91906118e1565b6111d791906118e1565b6111e19190611952565b90508093505050505b919050565b600033905090565b600080602060008451602086016000885af18061121a576040513d6000823e3d81fd5b3d925060005191505060008214611235576001811415611251565b60008473ffffffffffffffffffffffffffffffffffffffff163b145b1561129357836040517f5274afe700000000000000000000000000000000000000000000000000000000815260040161128a91906114ba565b60405180910390fd5b50505050565b600080fd5b600073ffffffffffffffffffffffffffffffffffffffff82169050919050565b60006112c98261129e565b9050919050565b6112d9816112be565b81146112e457600080fd5b50565b6000813590506112f6816112d0565b92915050565b60006020828403121561131257611311611299565b5b6000611320848285016112e7565b91505092915050565b6000819050919050565b61133c81611329565b82525050565b60006080820190506113576000830187611333565b6113646020830186611333565b6113716040830185611333565b61137e6060830184611333565b95945050505050565b600060208201905061139c6000830184611333565b92915050565b6113ab81611329565b81146113b657600080fd5b50565b6000813590506113c8816113a2565b92915050565b6000602082840312156113e4576113e3611299565b5b60006113f2848285016113b9565b91505092915050565b60008115159050919050565b611410816113fb565b82525050565b600060208201905061142b6000830184611407565b92915050565b6000819050919050565b600061145661145161144c8461129e565b611431565b61129e565b9050919050565b60006114688261143b565b9050919050565b600061147a8261145d565b9050919050565b61148a8161146f565b82525050565b60006020820190506114a56000830184611481565b92915050565b6114b4816112be565b82525050565b60006020820190506114cf60008301846114ab565b92915050565b600060a0820190506114ea6000830188611333565b6114f76020830187611333565b6115046040830186611333565b6115116060830185611333565b61151e6080830184611333565b9695505050505050565b600082825260208201905092915050565b7f416d6f756e74206d7573742062652067726561746572207468616e207a65726f600082015250565b600061156f602083611528565b915061157a82611539565b602082019050919050565b6000602082019050818103600083015261159e81611562565b9050919050565b7f4e487b7100000000000000000000000000000000000000000000000000000000600052601160045260246000fd5b60006115df82611329565b91506115ea83611329565b9250828201905080821115611602576116016115a5565b5b92915050565b7f496e73756666696369656e74207374616b65642062616c616e63650000000000600082015250565b600061163e601b83611528565b915061164982611608565b602082019050919050565b6000602082019050818103600083015261166d81611631565b9050919050565b7f546f6b656e7320617265207374696c6c206c6f636b6564000000000000000000600082015250565b60006116aa601783611528565b91506116b582611674565b602082019050919050565b600060208201905081810360008301526116d98161169d565b9050919050565b60006116eb82611329565b91506116f683611329565b925082820390508181111561170e5761170d6115a5565b5b92915050565b60006040820190506117296000830185611333565b6117366020830184611333565b9392505050565b7f4e6f207265776172647320746f20636c61696d00000000000000000000000000600082015250565b6000611773601383611528565b915061177e8261173d565b602082019050919050565b600060208201905081810360008301526117a281611766565b9050919050565b7f496e73756666696369656e742072657761726420706f6f6c0000000000000000600082015250565b60006117df601883611528565b91506117ea826117a9565b602082019050919050565b6000602082019050818103600083015261180e816117d2565b9050919050565b7f5261746520746f6f206869676800000000000000000000000000000000000000600082015250565b600061184b600d83611528565b915061185682611815565b602082019050919050565b6000602082019050818103600083015261187a8161183e565b9050919050565b600060608201905061189660008301866114ab565b6118a360208301856114ab565b6118b06040830184611333565b949350505050565b60006040820190506118cd60008301856114ab565b6118da6020830184611333565b9392505050565b60006118ec82611329565b91506118f783611329565b925082820261190581611329565b9150828204841483151761191c5761191b6115a5565b5b5092915050565b7f4e487b7100000000000000000000000000000000000000000000000000000000600052601260045260246000fd5b600061195d82611329565b915061196883611329565b92508261197857611977611923565b5b82820490509291505056fea26469706673582212208aa80542b4d8ca7153dcef9ac42a5815eef8fd38cbc7dae4a4d98149ec9d898164736f6c634300081b0033",
  "linkReferences": {},
  "deployedLinkReferences": {}
}