{
  "_format": "hh-sol-artifact-1",
  "contractName": "LauraAISoulmate",
  "sourceName": "contracts/LauraAISoulmate.sol",
  "abi": [
    {
      "inputs": [],
      "stateMutability": "nonpayable",
      "type": "constructor"
    },
    {
      "inputs": [
        {
          "internalType": "address",
          "name": "sender",
          "type": "address"
        },
        {
          "internalType": "uint256",
          "name": "tokenId",
          "type": "uint256"
        },
        {
          "internalType": "address",
          "name": "owner",
          "type": "address"
        }
      ],
      "name": "ERC721IncorrectOwner",
      "type": "error"
    },
    {
      "inputs": [
        {
          "internalType": "address",
          "name": "operator",
          "type": "address"
        },
        {
          "internalType": "uint256",
          "name": "tokenId",
          "type": "uint256"
        }
      ],
      "name": "ERC721InsufficientApproval",
      "type": "error"
    },
    {
      "inputs": [
        {
          "internalType": "address",
          "name": "approver",
          "type": "address"
        }
      ],
      "name": "ERC721InvalidApprover",
      "type": "error"
    },
    {
      "inputs": [
        {
          "internalType": "address",
          "name": "operator",
          "type": "address"
        }
      ],
      "name": "ERC721InvalidOperator",
      "type": "error"
    },
    {
      "inputs": [
        {
          "internalType": "address",
          "name": "owner",
          "type": "address"
        }
      ],
      "name": "ERC721InvalidOwner",
      "type": "error"
    },
    {
      "inputs": [
        {
          "internalType": "address",
          "name": "receiver",
          "type": "address"
        }
      ],
      "name": "ERC721InvalidReceiver",
      "type": "error"
    },
    {
      "inputs": [
        {
          "internalType": "address",
          "name": "sender",
          "type": "address"
        }
      ],
      "name": "ERC721InvalidSender",
      "type": "error"
    },
    {
      "inputs": [
        {
          "internalType": "uint256",
          "name": "tokenId",
          "type": "uint256"
        }
      ],
      "name": "ERC721NonexistentToken",
      "type": "error"
    },
    {
      "inputs": [
        {
          "internalType": "address",
          "name": "owner",
          "type": "address"
        }
      ],
      "name": "OwnableInvalidOwner",
      "type": "error"
    },
    {
      "inputs": [
        {
          "internalType": "address",
          "name": "account",
          "type": "address"
        }
      ],
      "name": "OwnableUnauthorizedAccount",
      "type": "error"
    },
    {
      "anonymous": false,
      "inputs": [
        {
          "indexed": true,
          "internalType": "address",
          "name": "owner",
          "type": "address"
        },
        {
          "indexed": true,
          "internalType": "address",
          "name": "approved",
          "type": "address"
        },
        {
          "indexed": true,
          "internalType": "uint256",
          "name": "tokenId",
          "type": "uint256"
        }
      ],
      "name": "Approval",
      "type": "event"
    },
    {
      "anonymous": false,
      "inputs": [
        {
          "indexed": true,
          "internalType": "address",
          "name": "owner",
          "type": "address"
        },
        {
          "indexed": true,
          "internalType": "address",
          "name": "operator",
          "type": "address"
        },
        {
          "indexed": false,
          "internalType": "bool",
          "name": "approved",
          "type": "bool"
        }
      ],
      "name": "ApprovalForAll",
      "type": "event"
    },
    {
      "anonymous": false,
      "inputs": [
        {
          "indexed": false,
          "internalType": "uint256",
          "name": "_fromTokenId",
          "type": "uint256"
        },
        {
          "indexed": false,
          "internalType": "uint256",
          "name": "_toTokenId",
          "type": "uint256"
        }
      ],
      "name": "BatchMetadataUpdate",
      "type": "event"
    },
    {
      "anonymous": false,
      "inputs": [
        {
          "indexed": false,
          "internalType": "uint256",
          "name": "_tokenId",
          "type": "uint256"
        }
      ],
      "name": "MetadataUpdate",
      "type": "event"
    },
    {
      "anonymous": false,
      "inputs": [
        {
          "indexed": true,
          "internalType": "address",
          "name": "previousOwner",
          "type": "address"
        },
        {
          "indexed": true,
          "internalType": "address",
          "name": "newOwner",
          "type": "address"
        }
      ],
      "name": "OwnershipTransferred",
      "type": "event"
    },
    {
      "anonymous": false,
      "inputs": [
        {
          "indexed": true,
          "internalType": "address",
          "name": "owner",
          "type": "address"
        },
        {
          "indexed": true,
          "internalType": "uint256",
          "name": "tokenId",
          "type": "uint256"
        },
        {
          "indexed": false,
          "internalType": "string",
          "name": "tokenURI",
          "type": "string"
        }
      ],
      "name": "SoulmateBorn",
      "type": "event"
    },
    {
      "anonymous": false,
      "inputs": [
        {
          "indexed": true,
          "internalType": "address",
          "name": "from",
          "type": "address"
        },
        {
          "indexed": true,
          "internalType": "address",
          "name": "to",
          "type": "address"
        },
        {
          "indexed": true,
          "internalType": "uint256",
          "name": "tokenId",
          "type": "uint256"
        }
      ],
      "name": "Transfer",
      "type": "event"
    },
    {
      "inputs": [
        {
          "internalType": "address",
          "name": "to",
          "type": "address"
        },
        {
          "internalType": "uint256",
          "name": "tokenId",
          "type": "uint256"
        }
      ],
      "name": "approve",
      "outputs": [],
      "stateMutability": "nonpayable",
      "type": "function"
    },
    {
      "inputs": [
        {
          "internalType": "address",
          "name": "owner",
          "type": "address"
        }
      ],
      "name": "balanceOf",
      "outputs": [
        {
          "internalType": "uint256",
          "name": "",
          "type": "uint256"
        }
      ],
      "stateMutability": "view",
      "type": "function"
    },
    {
      "inputs": [
        {
          "internalType": "uint256",
          "name": "tokenId",
          "type": "uint256"
        }
      ],
      "name": "getApproved",
      "outputs": [
        {
          "internalType": "address",
          "name": "",
          "type": "address"
        }
      ],
      "stateMutability": "view",
      "type": "function"
    },
    {
      "inputs": [
        {
          "internalType": "address",
          "name": "owner",
          "type": "address"
        },
        {
          "internalType": "address",
          "name": "operator",
          "type": "address"
        }
      ],
      "name": "isApprovedForAll",
      "outputs": [
        {
          "internalType": "bool",
          "name": "",
          "type": "bool"
        }
      ],
      "stateMutability": "view",
      "type": "function"
    },
    {
      "inputs": [],
      "name": "mintPrice",
      "outputs": [
        {
          "internalType": "uint256",
          "name": "",
          "type": "uint256"
        }
      ],
      "stateMutability": "view",
      "type": "function"
    },
    {
      "inputs": [],
      "name": "name",
      "outputs": [
        {
          "internalType": "string",
          "name": "",
          "type": "string"
        }
      ],
      "stateMutability": "view",
      "type": "function"
    },
    {
      "inputs": [],
      "name": "owner",
      "outputs": [
        {
          "internalType": "address",
          "name": "",
          "type": "address"
        }
      ],
      "stateMutability": "view",
      "type": "function"
    },
    {
      "inputs": [
        {
          "internalType": "uint256",
          "name": "tokenId",
          "type": "uint256"
        }
      ],
      "name": "ownerOf",
      "outputs": [
        {
          "internalType": "address",
          "name": "",
          "type": "address"
        }
      ],
      "stateMutability": "view",
      "type": "function"
    },
    {
      "inputs": [],
      "name": "renounceOwnership",
      "outputs": [],
      "stateMutability": "nonpayable",
      "type": "function"
    },
    {
      "inputs": [
        {
          "internalType": "address",
          "name": "to",
          "type": "address"
        },
        {
          "internalType": "string",
          "name": "uri",
          "type": "string"
        }
      ],
      "name": "safeMint",
      "outputs": [],
      "stateMutability": "payable",
      "type": "function"
    },
    {
      "inputs": [
        {
          "internalType": "address",
          "name": "from",
          "type": "address"
        },
        {
          "internalType": "address",
          "name": "to",
          "type": "address"
        },
        {
          "internalType": "uint256",
          "name": "tokenId",
          "type": "uint256"
        }
      ],
      "name": "safeTransferFrom",
      "outputs": [],
      "stateMutability": "nonpayable",
      "type": "function"
    },
    {
      "inputs": [
        {
          "internalType": "address",
          "name": "from",
          "type": "address"
        },
        {
          "internalType": "address",
          "name": "to",
          "type": "address"
        },
        {
          "internalType": "uint256",
          "name": "tokenId",
          "type": "uint256"
        },
        {
          "internalType": "bytes",
          "name": "data",
          "type": "bytes"
        }
      ],
      "name": "safeTransferFrom",
      "outputs": [],
      "stateMutability": "nonpayable",
      "type": "function"
    },
    {
      "inputs": [
        {
          "internalType": "address",
          "name": "operator",
          "type": "address"
        },
        {
          "internalType": "bool",
          "name": "approved",
          "type": "bool"
        }
      ],
      "name": "setApprovalForAll",
      "outputs": [],
      "stateMutability": "nonpayable",
      "type": "function"
    },
    {
      "inputs": [
        {
          "internalType": "uint256",
          "name": "_price",
          "type": "uint256"
        }
      ],
      "name": "setMintPrice",
      "outputs": [],
      "stateMutability": "nonpayable",
      "type": "function"
    },
    {
      "inputs": [
        {
          "internalType": "bytes4",
          "name": "interfaceId",
          "type": "bytes4"
        }
      ],
      "name": "supportsInterface",
      "outputs": [
        {
          "internalType": "bool",
          "name": "",
          "type": "bool"
        }
      ],
      "stateMutability": "view",
      "type": "function"
    },
    {
      "inputs": [],
      "name": "symbol",
      "outputs": [
        {
          "internalType": "string",
          "name": "",
          "type": "string"
        }
      ],
      "stateMutability": "view",
      "type": "function"
    },
    {
      "inputs": [
        {
          "internalType": "uint256",
          "name": "tokenId",
          "type": "uint256"
        }
      ],
      "name": "tokenURI",
      "outputs": [
        {
          "internalType": "string",
          "name": "",
          "type": "string"
        }
      ],
      "stateMutability": "view",
      "type": "function"
    },
    {
      "inputs": [
        {
          "internalType": "address",
          "name": "from",
          "type": "address"
        },
        {
          "internalType": "address",
          "name": "to",
          "type": "address"
        },
        {
          "internalType": "uint256",
          "name": "tokenId",
          "type": "uint256"
        }
      ],
      "name": "transferFrom",
      "outputs": [],
      "stateMutability": "nonpayable",
      "type": "function"
    },
    {
      "inputs": [
        {
          "internalType": "address",
          "name": "newOwner",
          "type": "address"
        }
      ],
      "name": "transferOwnership",
      "outputs": [],
      "stateMutability": "nonpayable",
      "type": "function"
    },
    {
      "inputs": [],
      "name": "withdraw",
      "outputs": [],
      "stateMutability": "nonpayable",
      "type": "function"
    }
  ],
  "bytecode": "0x6080604052662386f26fc1000060095534801561001b57600080fd5b50336040518060400160405280601181526020017f4c6175726120414920536f756c6d6174650000000000000000000000000000008152506040518060400160405280600481526020017f4c5241490000000000000000000000000000000000000000000000000000000081525081600090816100989190610448565b5080600190816100a89190610448565b505050600073ffffffffffffffffffffffffffffffffffffffff168173ffffffffffffffffffffffffffffffffffffffff160361011d5760006040517f1e4fbdf7000000000000000000000000000000000000000000000000000000008152600401610114919061055b565b60405180910390fd5b61012c8161013260201b60201c565b50610576565b6000600760009054906101000a900473ffffffffffffffffffffffffffffffffffffffff16905081600760006101000a81548173ffffffffffffffffffffffffffffffffffffffff021916908373ffffffffffffffffffffffffffffffffffffffff1602179055508173ffffffffffffffffffffffffffffffffffffffff168173ffffffffffffffffffffffffffffffffffffffff167f8be0079c531659141344cd1fd0a4f28419497f9722a3daafe3b4186f6b6457e060405160405180910390a35050565b600081519050919050565b7f4e487b7100000000000000000000000000000000000000000000000000000000600052604160045260246000fd5b7f4e487b7100000000000000000000000000000000000000000000000000000000600052602260045260246000fd5b6000600282049050600182168061027957607f821691505b60208210810361028c5761028b610232565b5b50919050565b60008190508160005260206000209050919050565b60006020601f8301049050919050565b600082821b905092915050565b6000600883026102f47fffffffffffffffffffffffffffffffffffffffffffffffffffffffffffffffff826102b7565b6102fe86836102b7565b95508019841693508086168417925050509392505050565b6000819050919050565b6000819050919050565b600061034561034061033b84610316565b610320565b610316565b9050919050565b6000819050919050565b61035f8361032a565b61037361036b8261034c565b8484546102c4565b825550505050565b600090565b61038861037b565b610393818484610356565b505050565b5b818110156103b7576103ac600082610380565b600181019050610399565b5050565b601f8211156103fc576103cd81610292565b6103d6846102a7565b810160208510156103e5578190505b6103f96103f1856102a7565b830182610398565b50505b505050565b600082821c905092915050565b600061041f60001984600802610401565b1980831691505092915050565b6000610438838361040e565b9150826002028217905092915050565b610451826101f8565b67ffffffffffffffff81111561046a57610469610203565b5b6104748254610261565b61047f8282856103bb565b600060209050601f8311600181146104b257600084156104a0578287015190505b6104aa858261042c565b865550610512565b601f1984166104c086610292565b60005b828110156104e8578489015182556001820191506020850194506020810190506104c3565b868310156105055784890151610501601f89168261040e565b8355505b6001600288020188555050505b505050505050565b600073ffffffffffffffffffffffffffffffffffffffff82169050919050565b60006105458261051a565b9050919050565b6105558161053a565b82525050565b6000602082019050610570600083018461054c565b92915050565b612965806105856000396000f3fe60806040526004361061011f5760003560e01c8063715018a6116100a0578063c87b56dd11610064578063c87b56dd146103bf578063d204c45e146103fc578063e985e9c514610418578063f2fde38b14610455578063f4a0a5281461047e5761011f565b8063715018a6146103005780638da5cb5b1461031757806395d89b4114610342578063a22cb4651461036d578063b88d4fde146103965761011f565b80633ccfd60b116100e75780633ccfd60b1461021b57806342842e0e146102325780636352211e1461025b5780636817c76c1461029857806370a08231146102c35761011f565b806301ffc9a71461012457806306fdde0314610161578063081812fc1461018c578063095ea7b3146101c957806323b872dd146101f2575b600080fd5b34801561013057600080fd5b5061014b60048036038101906101469190611d51565b6104a7565b6040516101589190611d99565b60405180910390f35b34801561016d57600080fd5b506101766104b9565b6040516101839190611e44565b60405180910390f35b34801561019857600080fd5b506101b360048036038101906101ae9190611e9c565b61054b565b6040516101c09190611f0a565b60405180910390f35b3480156101d557600080fd5b506101f060048036038101906101eb9190611f51565b610567565b005b3480156101fe57600080fd5b5061021960048036038101906102149190611f91565b61057d565b005b34801561022757600080fd5b5061023061067f565b005b34801561023e57600080fd5b5061025960048036038101906102549190611f91565b6106d7565b005b34801561026757600080fd5b50610282600480360381019061027d9190611e9c565b6106f7565b60405161028f9190611f0a565b60405180910390f35b3480156102a457600080fd5b506102ad610709565b6040516102ba9190611ff3565b60405180910390f35b3480156102cf57600080fd5b506102ea60048036038101906102e5919061200e565b61070f565b6040516102f79190611ff3565b60405180910390f35b34801561030c57600080fd5b506103156107c9565b005b34801561032357600080fd5b5061032c6107dd565b6040516103399190611f0a565b60405180910390f35b34801561034e57600080fd5b50610357610807565b6040516103649190611e44565b60405180910390f35b34801561037957600080fd5b50610394600480360381019061038f9190612067565b610899565b005b3480156103a257600080fd5b506103bd60048036038101906103b891906121dc565b6108af565b005b3480156103cb57600080fd5b506103e660048036038101906103e19190611e9c565b6108d4565b6040516103f39190611e44565b60405180910390f35b61041660048036038101906104119190612300565b6108e6565b005b34801561042457600080fd5b5061043f600480360381019061043a919061235c565b6109ae565b60405161044c9190611d99565b60405180910390f35b34801561046157600080fd5b5061047c6004803603810190610477919061200e565b610a42565b005b34801561048a57600080fd5b506104a560048036038101906104a09190611e9c565b610ac8565b005b60006104b282610ada565b9050919050565b6060600080546104c8906123cb565b80601f01602080910402602001604051908101604052809291908181526020018280546104f4906123cb565b80156105415780601f1061051657610100808354040283529160200191610541565b820191906000526020600020905b81548152906001019060200180831161052457829003601f168201915b5050505050905090565b600061055682610b3b565b5061056082610bc3565b9050919050565b6105798282610574610c00565b610c08565b5050565b600073ffffffffffffffffffffffffffffffffffffffff168273ffffffffffffffffffffffffffffffffffffffff16036105ef5760006040517f64a0ae920000000000000000000000000000000000000000000000000000000081526004016105e69190611f0a565b60405180910390fd5b600061060383836105fe610c00565b610c1a565b90508373ffffffffffffffffffffffffffffffffffffffff168173ffffffffffffffffffffffffffffffffffffffff1614610679578382826040517f64283d7b000000000000000000000000000000000000000000000000000000008152600401610670939291906123fc565b60405180910390fd5b50505050565b610687610e34565b61068f6107dd565b73ffffffffffffffffffffffffffffffffffffffff166108fc479081150290604051600060405180830381858888f193505050501580156106d4573d6000803e3d6000fd5b50565b6106f2838383604051806020016040528060008152506108af565b505050565b600061070282610b3b565b9050919050565b60095481565b60008073ffffffffffffffffffffffffffffffffffffffff168273ffffffffffffffffffffffffffffffffffffffff16036107825760006040517f89c62b640000000000000000000000000000000000000000000000000000000081526004016107799190611f0a565b60405180910390fd5b600360008373ffffffffffffffffffffffffffffffffffffffff1673ffffffffffffffffffffffffffffffffffffffff168152602001908152602001600020549050919050565b6107d1610e34565b6107db6000610ebb565b565b6000600760009054906101000a900473ffffffffffffffffffffffffffffffffffffffff16905090565b606060018054610816906123cb565b80601f0160208091040260200160405190810160405280929190818152602001828054610842906123cb565b801561088f5780601f106108645761010080835404028352916020019161088f565b820191906000526020600020905b81548152906001019060200180831161087257829003601f168201915b5050505050905090565b6108ab6108a4610c00565b8383610f81565b5050565b6108ba84848461057d565b6108ce6108c5610c00565b858585856110f0565b50505050565b60606108df826112a1565b9050919050565b60095434101561092b576040517f08c379a00000000000000000000000000000000000000000000000000000000081526004016109229061247f565b60405180910390fd5b600060086000815480929190610940906124ce565b91905055905061095083826113b4565b61095a81836113d2565b808373ffffffffffffffffffffffffffffffffffffffff167fa90539e00714b0a18b84664307335a5e7db9b53c71756878143e1e5e43057d25846040516109a19190611e44565b60405180910390a3505050565b6000600560008473ffffffffffffffffffffffffffffffffffffffff1673ffffffffffffffffffffffffffffffffffffffff16815260200190815260200160002060008373ffffffffffffffffffffffffffffffffffffffff1673ffffffffffffffffffffffffffffffffffffffff16815260200190815260200160002060009054906101000a900460ff16905092915050565b610a4a610e34565b600073ffffffffffffffffffffffffffffffffffffffff168173ffffffffffffffffffffffffffffffffffffffff1603610abc5760006040517f1e4fbdf7000000000000000000000000000000000000000000000000000000008152600401610ab39190611f0a565b60405180910390fd5b610ac581610ebb565b50565b610ad0610e34565b8060098190555050565b6000634906490660e01b7bffffffffffffffffffffffffffffffffffffffffffffffffffffffff1916827bffffffffffffffffffffffffffffffffffffffffffffffffffffffff19161480610b345750610b338261142e565b5b9050919050565b600080610b4783611510565b9050600073ffffffffffffffffffffffffffffffffffffffff168173ffffffffffffffffffffffffffffffffffffffff1603610bba57826040517f7e273289000000000000000000000000000000000000000000000000000000008152600401610bb19190611ff3565b60405180910390fd5b80915050919050565b60006004600083815260200190815260200160002060009054906101000a900473ffffffffffffffffffffffffffffffffffffffff169050919050565b600033905090565b610c15838383600161154d565b505050565b600080610c2684611510565b9050600073ffffffffffffffffffffffffffffffffffffffff168373ffffffffffffffffffffffffffffffffffffffff1614610c6857610c67818486611712565b5b600073ffffffffffffffffffffffffffffffffffffffff168173ffffffffffffffffffffffffffffffffffffffff1614610cf957610caa60008560008061154d565b6001600360008373ffffffffffffffffffffffffffffffffffffffff1673ffffffffffffffffffffffffffffffffffffffff168152602001908152602001600020600082825403925050819055505b600073ffffffffffffffffffffffffffffffffffffffff168573ffffffffffffffffffffffffffffffffffffffff1614610d7c576001600360008773ffffffffffffffffffffffffffffffffffffffff1673ffffffffffffffffffffffffffffffffffffffff168152602001908152602001600020600082825401925050819055505b846002600086815260200190815260200160002060006101000a81548173ffffffffffffffffffffffffffffffffffffffff021916908373ffffffffffffffffffffffffffffffffffffffff160217905550838573ffffffffffffffffffffffffffffffffffffffff168273ffffffffffffffffffffffffffffffffffffffff167fddf252ad1be2c89b69c2b068fc378daa952ba7f163c4a11628f55a4df523b3ef60405160405180910390a4809150509392505050565b610e3c610c00565b73ffffffffffffffffffffffffffffffffffffffff16610e5a6107dd565b73ffffffffffffffffffffffffffffffffffffffff1614610eb957610e7d610c00565b6040517f118cdaa7000000000000000000000000000000000000000000000000000000008152600401610eb09190611f0a565b60405180910390fd5b565b6000600760009054906101000a900473ffffffffffffffffffffffffffffffffffffffff16905081600760006101000a81548173ffffffffffffffffffffffffffffffffffffffff021916908373ffffffffffffffffffffffffffffffffffffffff1602179055508173ffffffffffffffffffffffffffffffffffffffff168173ffffffffffffffffffffffffffffffffffffffff167f8be0079c531659141344cd1fd0a4f28419497f9722a3daafe3b4186f6b6457e060405160405180910390a35050565b600073ffffffffffffffffffffffffffffffffffffffff168273ffffffffffffffffffffffffffffffffffffffff1603610ff257816040517f5b08ba18000000000000000000000000000000000000000000000000000000008152600401610fe99190611f0a565b60405180910390fd5b80600560008573ffffffffffffffffffffffffffffffffffffffff1673ffffffffffffffffffffffffffffffffffffffff16815260200190815260200160002060008473ffffffffffffffffffffffffffffffffffffffff1673ffffffffffffffffffffffffffffffffffffffff16815260200190815260200160002060006101000a81548160ff0219169083151502179055508173ffffffffffffffffffffffffffffffffffffffff168373ffffffffffffffffffffffffffffffffffffffff167f17307eab39ab6107e8899845ad3d59bd9653f200f220920489ca2b5937696c31836040516110e39190611d99565b60405180910390a3505050565b60008373ffffffffffffffffffffffffffffffffffffffff163b111561129a578273ffffffffffffffffffffffffffffffffffffffff1663150b7a02868685856040518563ffffffff1660e01b815260040161114f949392919061256b565b6020604051808303816000875af192505050801561118b57506040513d601f19601f8201168201806040525081019061118891906125cc565b60015b61120f573d80600081146111bb576040519150601f19603f3d011682016040523d82523d6000602084013e6111c0565b606091505b50600081510361120757836040517f64a0ae920000000000000000000000000000000000000000000000000000000081526004016111fe9190611f0a565b60405180910390fd5b805160208201fd5b63150b7a0260e01b7bffffffffffffffffffffffffffffffffffffffffffffffffffffffff1916817bffffffffffffffffffffffffffffffffffffffffffffffffffffffff19161461129857836040517f64a0ae9200000000000000000000000000000000000000000000000000000000815260040161128f9190611f0a565b60405180910390fd5b505b5050505050565b60606112ac82610b3b565b5060006006600084815260200190815260200160002080546112cd906123cb565b80601f01602080910402602001604051908101604052809291908181526020018280546112f9906123cb565b80156113465780601f1061131b57610100808354040283529160200191611346565b820191906000526020600020905b81548152906001019060200180831161132957829003601f168201915b5050505050905060006113576117d6565b9050600081510361136c5781925050506113af565b6000825111156113a1578082604051602001611389929190612635565b604051602081830303815290604052925050506113af565b6113aa84611813565b925050505b919050565b6113ce82826040518060200160405280600081525061187c565b5050565b806006600084815260200190815260200160002090816113f29190612805565b507ff8e1a15aba9398e019f0b49df1a4fde98ee17ae345cb5f6b5e2c27f5033e8ce7826040516114229190611ff3565b60405180910390a15050565b60007f80ac58cd000000000000000000000000000000000000000000000000000000007bffffffffffffffffffffffffffffffffffffffffffffffffffffffff1916827bffffffffffffffffffffffffffffffffffffffffffffffffffffffff191614806114f957507f5b5e139f000000000000000000000000000000000000000000000000000000007bffffffffffffffffffffffffffffffffffffffffffffffffffffffff1916827bffffffffffffffffffffffffffffffffffffffffffffffffffffffff1916145b806115095750611508826118a0565b5b9050919050565b60006002600083815260200190815260200160002060009054906101000a900473ffffffffffffffffffffffffffffffffffffffff169050919050565b80806115865750600073ffffffffffffffffffffffffffffffffffffffff168273ffffffffffffffffffffffffffffffffffffffff1614155b156116ba57600061159684610b3b565b9050600073ffffffffffffffffffffffffffffffffffffffff168373ffffffffffffffffffffffffffffffffffffffff161415801561160157508273ffffffffffffffffffffffffffffffffffffffff168173ffffffffffffffffffffffffffffffffffffffff1614155b8015611614575061161281846109ae565b155b1561165657826040517fa9fbf51f00000000000000000000000000000000000000000000000000000000815260040161164d9190611f0a565b60405180910390fd5b81156116b857838573ffffffffffffffffffffffffffffffffffffffff168273ffffffffffffffffffffffffffffffffffffffff167f8c5be1e5ebec7d5bd14f71427d1e84f3dd0314c0f7b2291e5b200ac8c7c3b92560405160405180910390a45b505b836004600085815260200190815260200160002060006101000a81548173ffffffffffffffffffffffffffffffffffffffff021916908373ffffffffffffffffffffffffffffffffffffffff16021790555050505050565b61171d83838361190a565b6117d157600073ffffffffffffffffffffffffffffffffffffffff168373ffffffffffffffffffffffffffffffffffffffff160361179257806040517f7e2732890000000000000000000000000000000000000000000000000000000081526004016117899190611ff3565b60405180910390fd5b81816040517f177e802f0000000000000000000000000000000000000000000000000000000081526004016117c89291906128d7565b60405180910390fd5b505050565b60606040518060400160405280602081526020017f68747470733a2f2f6170692e6c6175726161692e696f2f6d657461646174612f815250905090565b606061181e82610b3b565b5060006118296117d6565b905060008151116118495760405180602001604052806000815250611874565b80611853846119cb565b604051602001611864929190612635565b6040516020818303038152906040525b915050919050565b6118868383611a99565b61189b611891610c00565b60008585856110f0565b505050565b60007f01ffc9a7000000000000000000000000000000000000000000000000000000007bffffffffffffffffffffffffffffffffffffffffffffffffffffffff1916827bffffffffffffffffffffffffffffffffffffffffffffffffffffffff1916149050919050565b60008073ffffffffffffffffffffffffffffffffffffffff168373ffffffffffffffffffffffffffffffffffffffff16141580156119c257508273ffffffffffffffffffffffffffffffffffffffff168473ffffffffffffffffffffffffffffffffffffffff161480611983575061198284846109ae565b5b806119c157508273ffffffffffffffffffffffffffffffffffffffff166119a983610bc3565b73ffffffffffffffffffffffffffffffffffffffff16145b5b90509392505050565b6060600060016119da84611b92565b01905060008167ffffffffffffffff8111156119f9576119f86120b1565b5b6040519080825280601f01601f191660200182016040528015611a2b5781602001600182028036833780820191505090505b509050600082602083010190505b600115611a8e578080600190039150507f3031323334353637383961626364656600000000000000000000000000000000600a86061a8153600a8581611a8257611a81612900565b5b04945060008503611a39575b819350505050919050565b600073ffffffffffffffffffffffffffffffffffffffff168273ffffffffffffffffffffffffffffffffffffffff1603611b0b5760006040517f64a0ae92000000000000000000000000000000000000000000000000000000008152600401611b029190611f0a565b60405180910390fd5b6000611b1983836000610c1a565b9050600073ffffffffffffffffffffffffffffffffffffffff168173ffffffffffffffffffffffffffffffffffffffff1614611b8d5760006040517f73c6ac6e000000000000000000000000000000000000000000000000000000008152600401611b849190611f0a565b60405180910390fd5b505050565b600080600090507a184f03e93ff9f4daa797ed6e38ed64bf6a1f0100000000000000008310611bf0577a184f03e93ff9f4daa797ed6e38ed64bf6a1f0100000000000000008381611be657611be5612900565b5b0492506040810190505b6d04ee2d6d415b85acef81000000008310611c2d576d04ee2d6d415b85acef81000000008381611c2357611c22612900565b5b0492506020810190505b662386f26fc100008310611c5c57662386f26fc100008381611c5257611c51612900565b5b0492506010810190505b6305f5e1008310611c85576305f5e1008381611c7b57611c7a612900565b5b0492506008810190505b6127108310611caa576127108381611ca057611c9f612900565b5b0492506004810190505b60648310611ccd5760648381611cc357611cc2612900565b5b0492506002810190505b600a8310611cdc576001810190505b80915050919050565b6000604051905090565b600080fd5b600080fd5b60007fffffffff0000000000000000000000000000000000000000000000000000000082169050919050565b611d2e81611cf9565b8114611d3957600080fd5b50565b600081359050611d4b81611d25565b92915050565b600060208284031215611d6757611d66611cef565b5b6000611d7584828501611d3c565b91505092915050565b60008115159050919050565b611d9381611d7e565b82525050565b6000602082019050611dae6000830184611d8a565b92915050565b600081519050919050565b600082825260208201905092915050565b60005b83811015611dee578082015181840152602081019050611dd3565b60008484015250505050565b6000601f19601f8301169050919050565b6000611e1682611db4565b611e208185611dbf565b9350611e30818560208601611dd0565b611e3981611dfa565b840191505092915050565b60006020820190508181036000830152611e5e8184611e0b565b905092915050565b6000819050919050565b611e7981611e66565b8114611e8457600080fd5b50565b600081359050611e9681611e70565b92915050565b600060208284031215611eb257611eb1611cef565b5b6000611ec084828501611e87565b91505092915050565b600073ffffffffffffffffffffffffffffffffffffffff82169050919050565b6000611ef482611ec9565b9050919050565b611f0481611ee9565b82525050565b6000602082019050611f1f6000830184611efb565b92915050565b611f2e81611ee9565b8114611f3957600080fd5b50565b600081359050611f4b81611f25565b92915050565b60008060408385031215611f6857611f67611cef565b5b6000611f7685828601611f3c565b9250506020611f8785828601611e87565b9150509250929050565b600080600060608486031215611faa57611fa9611cef565b5b6000611fb886828701611f3c565b9350506020611fc986828701611f3c565b9250506040611fda86828701611e87565b9150509250925092565b611fed81611e66565b82525050565b60006020820190506120086000830184611fe4565b92915050565b60006020828403121561202457612023611cef565b5b600061203284828501611f3c565b91505092915050565b61204481611d7e565b811461204f57600080fd5b50565b6000813590506120618161203b565b92915050565b6000806040838503121561207e5761207d611cef565b5b600061208c85828601611f3c565b925050602061209d85828601612052565b9150509250929050565b600080fd5b600080fd5b7f4e487b7100000000000000000000000000000000000000000000000000000000600052604160045260246000fd5b6120e982611dfa565b810181811067ffffffffffffffff82111715612108576121076120b1565b5b80604052505050565b600061211b611ce5565b905061212782826120e0565b919050565b600067ffffffffffffffff821115612147576121466120b1565b5b61215082611dfa565b9050602081019050919050565b82818337600083830152505050565b600061217f61217a8461212c565b612111565b90508281526020810184848401111561219b5761219a6120ac565b5b6121a684828561215d565b509392505050565b600082601f8301126121c3576121c26120a7565b5b81356121d384826020860161216c565b91505092915050565b600080600080608085870312156121f6576121f5611cef565b5b600061220487828801611f3c565b945050602061221587828801611f3c565b935050604061222687828801611e87565b925050606085013567ffffffffffffffff81111561224757612246611cf4565b5b612253878288016121ae565b91505092959194509250565b600067ffffffffffffffff82111561227a576122796120b1565b5b61228382611dfa565b9050602081019050919050565b60006122a361229e8461225f565b612111565b9050828152602081018484840111156122bf576122be6120ac565b5b6122ca84828561215d565b509392505050565b600082601f8301126122e7576122e66120a7565b5b81356122f7848260208601612290565b91505092915050565b6000806040838503121561231757612316611cef565b5b600061232585828601611f3c565b925050602083013567ffffffffffffffff81111561234657612345611cf4565b5b612352858286016122d2565b9150509250929050565b6000806040838503121561237357612372611cef565b5b600061238185828601611f3c565b925050602061239285828601611f3c565b9150509250929050565b7f4e487b7100000000000000000000000000000000000000000000000000000000600052602260045260246000fd5b600060028204905060018216806123e357607f821691505b6020821081036123f6576123f561239c565b5b50919050565b60006060820190506124116000830186611efb565b61241e6020830185611fe4565b61242b6040830184611efb565b949350505050565b7f496e73756666696369656e74207061796d656e74000000000000000000000000600082015250565b6000612469601483611dbf565b915061247482612433565b602082019050919050565b600060208201905081810360008301526124988161245c565b9050919050565b7f4e487b7100000000000000000000000000000000000000000000000000000000600052601160045260246000fd5b60006124d982611e66565b91507fffffffffffffffffffffffffffffffffffffffffffffffffffffffffffffffff820361250b5761250a61249f565b5b600182019050919050565b600081519050919050565b600082825260208201905092915050565b600061253d82612516565b6125478185612521565b9350612557818560208601611dd0565b61256081611dfa565b840191505092915050565b60006080820190506125806000830187611efb565b61258d6020830186611efb565b61259a6040830185611fe4565b81810360608301526125ac8184612532565b905095945050505050565b6000815190506125c681611d25565b92915050565b6000602082840312156125e2576125e1611cef565b5b60006125f0848285016125b7565b91505092915050565b600081905092915050565b600061260f82611db4565b61261981856125f9565b9350612629818560208601611dd0565b80840191505092915050565b60006126418285612604565b915061264d8284612604565b91508190509392505050565b60008190508160005260206000209050919050565b60006020601f8301049050919050565b600082821b905092915050565b6000600883026126bb7fffffffffffffffffffffffffffffffffffffffffffffffffffffffffffffffff8261267e565b6126c5868361267e565b95508019841693508086168417925050509392505050565b6000819050919050565b60006127026126fd6126f884611e66565b6126dd565b611e66565b9050919050565b6000819050919050565b61271c836126e7565b61273061272882612709565b84845461268b565b825550505050565b600090565b612745612738565b612750818484612713565b505050565b5b818110156127745761276960008261273d565b600181019050612756565b5050565b601f8211156127b95761278a81612659565b6127938461266e565b810160208510156127a2578190505b6127b66127ae8561266e565b830182612755565b50505b505050565b600082821c905092915050565b60006127dc600019846008026127be565b1980831691505092915050565b60006127f583836127cb565b9150826002028217905092915050565b61280e82611db4565b67ffffffffffffffff811115612827576128266120b1565b5b61283182546123cb565b61283c828285612778565b600060209050601f83116001811461286f576000841561285d578287015190505b61286785826127e9565b8655506128cf565b601f19841661287d86612659565b60005b828110156128a557848901518255600182019150602085019450602081019050612880565b868310156128c257848901516128be601f8916826127cb565b8355505b6001600288020188555050505b505050505050565b60006040820190506128ec6000830185611efb565b6128f96020830184611fe4565b9392505050565b7f4e487b7100000000000000000000000000000000000000000000000000000000600052601260045260246000fdfea26469706673582212200d0e103c0764811b7a8f1c35ddb93f5156adde02a7c26b833b5aa943c14d88a564736f6c634300081b0033",
  "linkReferences": {},
  "deployedLinkReferences": {}
}