{
  "_format": "hh-sol-artifact-1",
  "contractName": "LauraAISoulmate",
  "sourceName": "contracts/LauraAISoulmate.sol",
  "abi": [
    {
      "inputs": [
        {
          "internalType": "address",
          "name": "tokenAddress",
          "type": "address"
        },
        {
          "internalType": "address",
          "name": "treasuryAddress",
          "type": "address"
        },
        {
          "internalType": "uint256",
          "name": "initialMintPrice",
          "type": "uint256"
        }
      ],
      "stateMutability": "nonpayable",
      "type": "constructor"
    },
    {
      "inputs": [
        {
          "internalType": "address",
          "name": "sender",
          "type": "address"
        },
        {
          "internalType": "uint256",
          "name": "tokenId",
          "type": "uint256"
        },
        {
          "internalType": "address",
          "name": "owner",
          "type": "address"
        }
      ],
      "name": "ERC721IncorrectOwner",
      "type": "error"
    },
    {
      "inputs": [
        {
          "internalType": "address",
          "name": "operator",
          "type": "address"
        },
        {
          "internalType": "uint256",
          "name": "tokenId",
          "type": "uint256"
        }
      ],
      "name": "ERC721InsufficientApproval",
      "type": "error"
    },
    {
      "inputs": [
        {
          "internalType": "address",
          "name": "approver",
          "type": "address"
        }
      ],
      "name": "ERC721InvalidApprover",
      "type": "error"
    },
    {
      "inputs": [
        {
          "internalType": "address",
          "name": "operator",
          "type": "address"
        }
      ],
      "name": "ERC721InvalidOperator",
      "type": "error"
    },
    {
      "inputs": [
        {
          "internalType": "address",
          "name": "owner",
          "type": "address"
        }
      ],
      "name": "ERC721InvalidOwner",
      "type": "error"
    },
    {
      "inputs": [
        {
          "internalType": "address",
          "name": "receiver",
          "type": "address"
        }
      ],
      "name": "ERC721InvalidReceiver",
      "type": "error"
    },
    {
      "inputs": [
        {
          "internalType": "address",
          "name": "sender",
          "type": "address"
        }
      ],
      "name": "ERC721InvalidSender",
      "type": "error"
    },
    {
      "inputs": [
        {
          "internalType": "uint256",
          "name": "tokenId",
          "type": "uint256"
        }
      ],
      "name": "ERC721NonexistentToken",
      "type": "error"
    },
    {
      "inputs": [
        {
          "internalType": "address",
          "name": "owner",
          "type": "address"
        }
      ],
      "name": "OwnableInvalidOwner",
      "type": "error"
    },
    {
      "inputs": [
        {
          "internalType": "address",
          "name": "account",
          "type": "address"
        }
      ],
      "name": "OwnableUnauthorizedAccount",
      "type": "error"
    },
    {
      "anonymous": false,
      "inputs": [
        {
          "indexed": true,
          "internalType": "address",
          "name": "owner",
          "type": "address"
        },
        {
          "indexed": true,
          "internalType": "address",
          "name": "approved",
          "type": "address"
        },
        {
          "indexed": true,
          "internalType": "uint256",
          "name": "tokenId",
          "type": "uint256"
        }
      ],
      "name": "Approval",
      "type": "event"
    },
    {
      "anonymous": false,
      "inputs": [
        {
          "indexed": true,
          "internalType": "address",
          "name": "owner",
          "type": "address"
        },
        {
          "indexed": true,
          "internalType": "address",
          "name": "operator",
          "type": "address"
        },
        {
          "indexed": false,
          "internalType": "bool",
          "name": "approved",
          "type": "bool"
        }
      ],
      "name": "ApprovalForAll",
      "type": "event"
    },
    {
      "anonymous": false,
      "inputs": [
        {
          "indexed": false,
          "internalType": "uint256",
          "name": "_fromTokenId",
          "type": "uint256"
        },
        {
          "indexed": false,
          "internalType": "uint256",
          "name": "_toTokenId",
          "type": "uint256"
        }
      ],
      "name": "BatchMetadataUpdate",
      "type": "event"
    },
    {
      "anonymous": false,
      "inputs": [
        {
          "indexed": false,
          "internalType": "uint256",
          "name": "_tokenId",
          "type": "uint256"
        }
      ],
      "name": "MetadataUpdate",
      "type": "event"
    },
    {
      "anonymous": false,
      "inputs": [
        {
          "indexed": true,
          "internalType": "address",
          "name": "payer",
          "type": "address"
        },
        {
          "indexed": true,
          "internalType": "address",
          "name": "treasury",
          "type": "address"
        },
        {
          "indexed": false,
          "internalType": "uint256",
          "name": "amount",
          "type": "uint256"
        }
      ],
      "name": "MintPayment",
      "type": "event"
    },
    {
      "anonymous": false,
      "inputs": [
        {
          "indexed": true,
          "internalType": "address",
          "name": "previousOwner",
          "type": "address"
        },
        {
          "indexed": true,
          "internalType": "address",
          "name": "newOwner",
          "type": "address"
        }
      ],
      "name": "OwnershipTransferred",
      "type": "event"
    },
    {
      "anonymous": false,
      "inputs": [
        {
          "indexed": true,
          "internalType": "address",
          "name": "owner",
          "type": "address"
        },
        {
          "indexed": true,
          "internalType": "uint256",
          "name": "tokenId",
          "type": "uint256"
        },
        {
          "indexed": false,
          "internalType": "string",
          "name": "tokenURI",
          "type": "string"
        }
      ],
      "name": "SoulmateBorn",
      "type": "event"
    },
    {
      "anonymous": false,
      "inputs": [
        {
          "indexed": true,
          "internalType": "address",
          "name": "from",
          "type": "address"
        },
        {
          "indexed": true,
          "internalType": "address",
          "name": "to",
          "type": "address"
        },
        {
          "indexed": true,
          "internalType": "uint256",
          "name": "tokenId",
          "type": "uint256"
        }
      ],
      "name": "Transfer",
      "type": "event"
    },
    {
      "inputs": [
        {
          "internalType": "address",
          "name": "to",
          "type": "address"
        },
        {
          "internalType": "uint256",
          "name": "tokenId",
          "type": "uint256"
        }
      ],
      "name": "approve",
      "outputs": [],
      "stateMutability": "nonpayable",
      "type": "function"
    },
    {
      "inputs": [
        {
          "internalType": "address",
          "name": "owner",
          "type": "address"
        }
      ],
      "name": "balanceOf",
      "outputs": [
        {
          "internalType": "uint256",
          "name": "",
          "type": "uint256"
        }
      ],
      "stateMutability": "view",
      "type": "function"
    },
    {
      "inputs": [
        {
          "internalType": "uint256",
          "name": "tokenId",
          "type": "uint256"
        }
      ],
      "name": "getApproved",
      "outputs": [
        {
          "internalType": "address",
          "name": "",
          "type": "address"
        }
      ],
      "stateMutability": "view",
      "type": "function"
    },
    {
      "inputs": [
        {
          "internalType": "address",
          "name": "owner",
          "type": "address"
        },
        {
          "internalType": "address",
          "name": "operator",
          "type": "address"
        }
      ],
      "name": "isApprovedForAll",
      "outputs": [
        {
          "internalType": "bool",
          "name": "",
          "type": "bool"
        }
      ],
      "stateMutability": "view",
      "type": "function"
    },
    {
      "inputs": [],
      "name": "mintPrice",
      "outputs": [
        {
          "internalType": "uint256",
          "name": "",
          "type": "uint256"
        }
      ],
      "stateMutability": "view",
      "type": "function"
    },
    {
      "inputs": [],
      "name": "name",
      "outputs": [
        {
          "internalType": "string",
          "name": "",
          "type": "string"
        }
      ],
      "stateMutability": "view",
      "type": "function"
    },
    {
      "inputs": [],
      "name": "owner",
      "outputs": [
        {
          "internalType": "address",
          "name": "",
          "type": "address"
        }
      ],
      "stateMutability": "view",
      "type": "function"
    },
    {
      "inputs": [
        {
          "internalType": "uint256",
          "name": "tokenId",
          "type": "uint256"
        }
      ],
      "name": "ownerOf",
      "outputs": [
        {
          "internalType": "address",
          "name": "",
          "type": "address"
        }
      ],
      "stateMutability": "view",
      "type": "function"
    },
    {
      "inputs": [],
      "name": "paymentToken",
      "outputs": [
        {
          "internalType": "contract IERC20",
          "name": "",
          "type": "address"
        }
      ],
      "stateMutability": "view",
      "type": "function"
    },
    {
      "inputs": [],
      "name": "renounceOwnership",
      "outputs": [],
      "stateMutability": "nonpayable",
      "type": "function"
    },
    {
      "inputs": [
        {
          "internalType": "address",
          "name": "to",
          "type": "address"
        },
        {
          "internalType": "string",
          "name": "uri",
          "type": "string"
        }
      ],
      "name": "safeMint",
      "outputs": [],
      "stateMutability": "payable",
      "type": "function"
    },
    {
      "inputs": [
        {
          "internalType": "address",
          "name": "from",
          "type": "address"
        },
        {
          "internalType": "address",
          "name": "to",
          "type": "address"
        },
        {
          "internalType": "uint256",
          "name": "tokenId",
          "type": "uint256"
        }
      ],
      "name": "safeTransferFrom",
      "outputs": [],
      "stateMutability": "nonpayable",
      "type": "function"
    },
    {
      "inputs": [
        {
          "internalType": "address",
          "name": "from",
          "type": "address"
        },
        {
          "internalType": "address",
          "name": "to",
          "type": "address"
        },
        {
          "internalType": "uint256",
          "name": "tokenId",
          "type": "uint256"
        },
        {
          "internalType": "bytes",
          "name": "data",
          "type": "bytes"
        }
      ],
      "name": "safeTransferFrom",
      "outputs": [],
      "stateMutability": "nonpayable",
      "type": "function"
    },
    {
      "inputs": [
        {
          "internalType": "address",
          "name": "operator",
          "type": "address"
        },
        {
          "internalType": "bool",
          "name": "approved",
          "type": "bool"
        }
      ],
      "name": "setApprovalForAll",
      "outputs": [],
      "stateMutability": "nonpayable",
      "type": "function"
    },
    {
      "inputs": [
        {
          "internalType": "uint256",
          "name": "_price",
          "type": "uint256"
        }
      ],
      "name": "setMintPrice",
      "outputs": [],
      "stateMutability": "nonpayable",
      "type": "function"
    },
    {
      "inputs": [
        {
          "internalType": "address",
          "name": "_token",
          "type": "address"
        }
      ],
      "name": "setPaymentToken",
      "outputs": [],
      "stateMutability": "nonpayable",
      "type": "function"
    },
    {
      "inputs": [
        {
          "internalType": "address",
          "name": "_treasury",
          "type": "address"
        }
      ],
      "name": "setTreasury",
      "outputs": [],
      "stateMutability": "nonpayable",
      "type": "function"
    },
    {
      "inputs": [
        {
          "internalType": "bytes4",
          "name": "interfaceId",
          "type": "bytes4"
        }
      ],
      "name": "supportsInterface",
      "outputs": [
        {
          "internalType": "bool",
          "name": "",
          "type": "bool"
        }
      ],
      "stateMutability": "view",
      "type": "function"
    },
    {
      "inputs": [],
      "name": "symbol",
      "outputs": [
        {
          "internalType": "string",
          "name": "",
          "type": "string"
        }
      ],
      "stateMutability": "view",
      "type": "function"
    },
    {
      "inputs": [
        {
          "internalType": "uint256",
          "name": "tokenId",
          "type": "uint256"
        }
      ],
      "name": "tokenURI",
      "outputs": [
        {
          "internalType": "string",
          "name": "",
          "type": "string"
        }
      ],
      "stateMutability": "view",
      "type": "function"
    },
    {
      "inputs": [
        {
          "internalType": "address",
          "name": "from",
          "type": "address"
        },
        {
          "internalType": "address",
          "name": "to",
          "type": "address"
        },
        {
          "internalType": "uint256",
          "name": "tokenId",
          "type": "uint256"
        }
      ],
      "name": "transferFrom",
      "outputs": [],
      "stateMutability": "nonpayable",
      "type": "function"
    },
    {
      "inputs": [
        {
          "internalType": "address",
          "name": "newOwner",
          "type": "address"
        }
      ],
      "name": "transferOwnership",
      "outputs": [],
      "stateMutability": "nonpayable",
      "type": "function"
    },
    {
      "inputs": [],
      "name": "treasury",
      "outputs": [
        {
          "internalType": "address",
          "name": "",
          "type": "address"
        }
      ],
      "stateMutability": "view",
      "type": "function"
    }
  ],
  "bytecode": "0x608060405234801561001057600080fd5b5060405161396238038061396283398181016040528101906100329190610454565b336040518060400160405280601181526020017f4c6175726120414920536f756c6d6174650000000000000000000000000000008152506040518060400160405280600481526020017f4c5241490000000000000000000000000000000000000000000000000000000081525081600090816100ae91906106ed565b5080600190816100be91906106ed565b505050600073ffffffffffffffffffffffffffffffffffffffff168173ffffffffffffffffffffffffffffffffffffffff16036101335760006040517f1e4fbdf700000000000000000000000000000000000000000000000000000000815260040161012a91906107ce565b60405180910390fd5b610142816102f560201b60201c565b50600073ffffffffffffffffffffffffffffffffffffffff168373ffffffffffffffffffffffffffffffffffffffff16036101b2576040517f08c379a00000000000000000000000000000000000000000000000000000000081526004016101a990610846565b60405180910390fd5b600073ffffffffffffffffffffffffffffffffffffffff168273ffffffffffffffffffffffffffffffffffffffff1603610221576040517f08c379a0000000000000000000000000000000000000000000000000000000008152600401610218906108b2565b60405180910390fd5b60008111610264576040517f08c379a000000000000000000000000000000000000000000000000000000000815260040161025b9061091e565b60405180910390fd5b82600960006101000a81548173ffffffffffffffffffffffffffffffffffffffff021916908373ffffffffffffffffffffffffffffffffffffffff16021790555081600a60006101000a81548173ffffffffffffffffffffffffffffffffffffffff021916908373ffffffffffffffffffffffffffffffffffffffff16021790555080600b8190555050505061093e565b6000600760009054906101000a900473ffffffffffffffffffffffffffffffffffffffff16905081600760006101000a81548173ffffffffffffffffffffffffffffffffffffffff021916908373ffffffffffffffffffffffffffffffffffffffff1602179055508173ffffffffffffffffffffffffffffffffffffffff168173ffffffffffffffffffffffffffffffffffffffff167f8be0079c531659141344cd1fd0a4f28419497f9722a3daafe3b4186f6b6457e060405160405180910390a35050565b600080fd5b600073ffffffffffffffffffffffffffffffffffffffff82169050919050565b60006103eb826103c0565b9050919050565b6103fb816103e0565b811461040657600080fd5b50565b600081519050610418816103f2565b92915050565b6000819050919050565b6104318161041e565b811461043c57600080fd5b50565b60008151905061044e81610428565b92915050565b60008060006060848603121561046d5761046c6103bb565b5b600061047b86828701610409565b935050602061048c86828701610409565b925050604061049d8682870161043f565b9150509250925092565b600081519050919050565b7f4e487b7100000000000000000000000000000000000000000000000000000000600052604160045260246000fd5b7f4e487b7100000000000000000000000000000000000000000000000000000000600052602260045260246000fd5b6000600282049050600182168061052857607f821691505b60208210810361053b5761053a6104e1565b5b50919050565b60008190508160005260206000209050919050565b60006020601f8301049050919050565b600082821b905092915050565b6000600883026105a37fffffffffffffffffffffffffffffffffffffffffffffffffffffffffffffffff82610566565b6105ad8683610566565b95508019841693508086168417925050509392505050565b6000819050919050565b60006105ea6105e56105e08461041e565b6105c5565b61041e565b9050919050565b6000819050919050565b610604836105cf565b610618610610826105f1565b848454610573565b825550505050565b600090565b61062d610620565b6106388184846105fb565b505050565b5b8181101561065c57610651600082610625565b60018101905061063e565b5050565b601f8211156106a15761067281610541565b61067b84610556565b8101602085101561068a578190505b61069e61069685610556565b83018261063d565b50505b505050565b600082821c905092915050565b60006106c4600019846008026106a6565b1980831691505092915050565b60006106dd83836106b3565b9150826002028217905092915050565b6106f6826104a7565b67ffffffffffffffff81111561070f5761070e6104b2565b5b6107198254610510565b610724828285610660565b600060209050601f8311600181146107575760008415610745578287015190505b61074f85826106d1565b8655506107b7565b601f19841661076586610541565b60005b8281101561078d57848901518255600182019150602085019450602081019050610768565b868310156107aa57848901516107a6601f8916826106b3565b8355505b6001600288020188555050505b505050505050565b6107c8816103e0565b82525050565b60006020820190506107e360008301846107bf565b92915050565b600082825260208201905092915050565b7f496e76616c696420746f6b656e20616464726573730000000000000000000000600082015250565b60006108306015836107e9565b915061083b826107fa565b602082019050919050565b6000602082019050818103600083015261085f81610823565b9050919050565b7f496e76616c696420747265617375727920616464726573730000000000000000600082015250565b600061089c6018836107e9565b91506108a782610866565b602082019050919050565b600060208201905081810360008301526108cb8161088f565b9050919050565b7f496e76616c6964206d696e742070726963650000000000000000000000000000600082015250565b60006109086012836107e9565b9150610913826108d2565b602082019050919050565b60006020820190508181036000830152610937816108fb565b9050919050565b6130158061094d6000396000f3fe6080604052600436106101405760003560e01c806370a08231116100b6578063c87b56dd1161006f578063c87b56dd14610448578063d204c45e14610485578063e985e9c5146104a1578063f0f44260146104de578063f2fde38b14610507578063f4a0a5281461053057610140565b806370a082311461034c578063715018a6146103895780638da5cb5b146103a057806395d89b41146103cb578063a22cb465146103f6578063b88d4fde1461041f57610140565b80633013ce29116101085780633013ce291461023c57806342842e0e1461026757806361d027b3146102905780636352211e146102bb5780636817c76c146102f85780636a326ab11461032357610140565b806301ffc9a71461014557806306fdde0314610182578063081812fc146101ad578063095ea7b3146101ea57806323b872dd14610213575b600080fd5b34801561015157600080fd5b5061016c60048036038101906101679190612168565b610559565b60405161017991906121b0565b60405180910390f35b34801561018e57600080fd5b5061019761056b565b6040516101a4919061225b565b60405180910390f35b3480156101b957600080fd5b506101d460048036038101906101cf91906122b3565b6105fd565b6040516101e19190612321565b60405180910390f35b3480156101f657600080fd5b50610211600480360381019061020c9190612368565b610619565b005b34801561021f57600080fd5b5061023a600480360381019061023591906123a8565b61062f565b005b34801561024857600080fd5b50610251610731565b60405161025e919061245a565b60405180910390f35b34801561027357600080fd5b5061028e600480360381019061028991906123a8565b610757565b005b34801561029c57600080fd5b506102a5610777565b6040516102b29190612321565b60405180910390f35b3480156102c757600080fd5b506102e260048036038101906102dd91906122b3565b61079d565b6040516102ef9190612321565b60405180910390f35b34801561030457600080fd5b5061030d6107af565b60405161031a9190612484565b60405180910390f35b34801561032f57600080fd5b5061034a6004803603810190610345919061249f565b6107b5565b005b34801561035857600080fd5b50610373600480360381019061036e919061249f565b610870565b6040516103809190612484565b60405180910390f35b34801561039557600080fd5b5061039e61092a565b005b3480156103ac57600080fd5b506103b561093e565b6040516103c29190612321565b60405180910390f35b3480156103d757600080fd5b506103e0610968565b6040516103ed919061225b565b60405180910390f35b34801561040257600080fd5b5061041d600480360381019061041891906124f8565b6109fa565b005b34801561042b57600080fd5b506104466004803603810190610441919061266d565b610a10565b005b34801561045457600080fd5b5061046f600480360381019061046a91906122b3565b610a35565b60405161047c919061225b565b60405180910390f35b61049f600480360381019061049a9190612791565b610a47565b005b3480156104ad57600080fd5b506104c860048036038101906104c391906127ed565b610cc7565b6040516104d591906121b0565b60405180910390f35b3480156104ea57600080fd5b506105056004803603810190610500919061249f565b610d5b565b005b34801561051357600080fd5b5061052e6004803603810190610529919061249f565b610e16565b005b34801561053c57600080fd5b50610557600480360381019061055291906122b3565b610e9c565b005b600061056482610ef1565b9050919050565b60606000805461057a9061285c565b80601f01602080910402602001604051908101604052809291908181526020018280546105a69061285c565b80156105f35780601f106105c8576101008083540402835291602001916105f3565b820191906000526020600020905b8154815290600101906020018083116105d657829003601f168201915b5050505050905090565b600061060882610f52565b5061061282610fda565b9050919050565b61062b8282610626611017565b61101f565b5050565b600073ffffffffffffffffffffffffffffffffffffffff168273ffffffffffffffffffffffffffffffffffffffff16036106a15760006040517f64a0ae920000000000000000000000000000000000000000000000000000000081526004016106989190612321565b60405180910390fd5b60006106b583836106b0611017565b611031565b90508373ffffffffffffffffffffffffffffffffffffffff168173ffffffffffffffffffffffffffffffffffffffff161461072b578382826040517f64283d7b0000000000000000000000000000000000000000000000000000000081526004016107229392919061288d565b60405180910390fd5b50505050565b600960009054906101000a900473ffffffffffffffffffffffffffffffffffffffff1681565b61077283838360405180602001604052806000815250610a10565b505050565b600a60009054906101000a900473ffffffffffffffffffffffffffffffffffffffff1681565b60006107a882610f52565b9050919050565b600b5481565b6107bd61124b565b600073ffffffffffffffffffffffffffffffffffffffff168173ffffffffffffffffffffffffffffffffffffffff160361082c576040517f08c379a000000000000000000000000000000000000000000000000000000000815260040161082390612910565b60405180910390fd5b80600960006101000a81548173ffffffffffffffffffffffffffffffffffffffff021916908373ffffffffffffffffffffffffffffffffffffffff16021790555050565b60008073ffffffffffffffffffffffffffffffffffffffff168273ffffffffffffffffffffffffffffffffffffffff16036108e35760006040517f89c62b640000000000000000000000000000000000000000000000000000000081526004016108da9190612321565b60405180910390fd5b600360008373ffffffffffffffffffffffffffffffffffffffff1673ffffffffffffffffffffffffffffffffffffffff168152602001908152602001600020549050919050565b61093261124b565b61093c60006112d2565b565b6000600760009054906101000a900473ffffffffffffffffffffffffffffffffffffffff16905090565b6060600180546109779061285c565b80601f01602080910402602001604051908101604052809291908181526020018280546109a39061285c565b80156109f05780601f106109c5576101008083540402835291602001916109f0565b820191906000526020600020905b8154815290600101906020018083116109d357829003601f168201915b5050505050905090565b610a0c610a05611017565b8383611398565b5050565b610a1b84848461062f565b610a2f610a26611017565b85858585611507565b50505050565b6060610a40826116b8565b9050919050565b600073ffffffffffffffffffffffffffffffffffffffff168273ffffffffffffffffffffffffffffffffffffffff1603610ab6576040517f08c379a0000000000000000000000000000000000000000000000000000000008152600401610aad9061297c565b60405180910390fd5b600960009054906101000a900473ffffffffffffffffffffffffffffffffffffffff1673ffffffffffffffffffffffffffffffffffffffff166323b872dd33600a60009054906101000a900473ffffffffffffffffffffffffffffffffffffffff16600b546040518463ffffffff1660e01b8152600401610b399392919061299c565b6020604051808303816000875af1158015610b58573d6000803e3d6000fd5b505050506040513d601f19601f82011682018060405250810190610b7c91906129e8565b610bbb576040517f08c379a0000000000000000000000000000000000000000000000000000000008152600401610bb290612a61565b60405180910390fd5b600060086000815480929190610bd090612ab0565b919050559050610be083826117cb565b610bea81836117e9565b600a60009054906101000a900473ffffffffffffffffffffffffffffffffffffffff1673ffffffffffffffffffffffffffffffffffffffff163373ffffffffffffffffffffffffffffffffffffffff167f4c0717c19adfec1ca888b2199740a5ffd3588aa1baa0a305ea7f9dab02704581600b54604051610c6b9190612484565b60405180910390a3808373ffffffffffffffffffffffffffffffffffffffff167fa90539e00714b0a18b84664307335a5e7db9b53c71756878143e1e5e43057d2584604051610cba919061225b565b60405180910390a3505050565b6000600560008473ffffffffffffffffffffffffffffffffffffffff1673ffffffffffffffffffffffffffffffffffffffff16815260200190815260200160002060008373ffffffffffffffffffffffffffffffffffffffff1673ffffffffffffffffffffffffffffffffffffffff16815260200190815260200160002060009054906101000a900460ff16905092915050565b610d6361124b565b600073ffffffffffffffffffffffffffffffffffffffff168173ffffffffffffffffffffffffffffffffffffffff1603610dd2576040517f08c379a0000000000000000000000000000000000000000000000000000000008152600401610dc990612b44565b60405180910390fd5b80600a60006101000a81548173ffffffffffffffffffffffffffffffffffffffff021916908373ffffffffffffffffffffffffffffffffffffffff16021790555050565b610e1e61124b565b600073ffffffffffffffffffffffffffffffffffffffff168173ffffffffffffffffffffffffffffffffffffffff1603610e905760006040517f1e4fbdf7000000000000000000000000000000000000000000000000000000008152600401610e879190612321565b60405180910390fd5b610e99816112d2565b50565b610ea461124b565b60008111610ee7576040517f08c379a0000000000000000000000000000000000000000000000000000000008152600401610ede90612bb0565b60405180910390fd5b80600b8190555050565b6000634906490660e01b7bffffffffffffffffffffffffffffffffffffffffffffffffffffffff1916827bffffffffffffffffffffffffffffffffffffffffffffffffffffffff19161480610f4b5750610f4a82611845565b5b9050919050565b600080610f5e83611927565b9050600073ffffffffffffffffffffffffffffffffffffffff168173ffffffffffffffffffffffffffffffffffffffff1603610fd157826040517f7e273289000000000000000000000000000000000000000000000000000000008152600401610fc89190612484565b60405180910390fd5b80915050919050565b60006004600083815260200190815260200160002060009054906101000a900473ffffffffffffffffffffffffffffffffffffffff169050919050565b600033905090565b61102c8383836001611964565b505050565b60008061103d84611927565b9050600073ffffffffffffffffffffffffffffffffffffffff168373ffffffffffffffffffffffffffffffffffffffff161461107f5761107e818486611b29565b5b600073ffffffffffffffffffffffffffffffffffffffff168173ffffffffffffffffffffffffffffffffffffffff1614611110576110c1600085600080611964565b6001600360008373ffffffffffffffffffffffffffffffffffffffff1673ffffffffffffffffffffffffffffffffffffffff168152602001908152602001600020600082825403925050819055505b600073ffffffffffffffffffffffffffffffffffffffff168573ffffffffffffffffffffffffffffffffffffffff1614611193576001600360008773ffffffffffffffffffffffffffffffffffffffff1673ffffffffffffffffffffffffffffffffffffffff168152602001908152602001600020600082825401925050819055505b846002600086815260200190815260200160002060006101000a81548173ffffffffffffffffffffffffffffffffffffffff021916908373ffffffffffffffffffffffffffffffffffffffff160217905550838573ffffffffffffffffffffffffffffffffffffffff168273ffffffffffffffffffffffffffffffffffffffff167fddf252ad1be2c89b69c2b068fc378daa952ba7f163c4a11628f55a4df523b3ef60405160405180910390a4809150509392505050565b611253611017565b73ffffffffffffffffffffffffffffffffffffffff1661127161093e565b73ffffffffffffffffffffffffffffffffffffffff16146112d057611294611017565b6040517f118cdaa70000000000000000000000000000000000000000000000000000000081526004016112c79190612321565b60405180910390fd5b565b6000600760009054906101000a900473ffffffffffffffffffffffffffffffffffffffff16905081600760006101000a81548173ffffffffffffffffffffffffffffffffffffffff021916908373ffffffffffffffffffffffffffffffffffffffff1602179055508173ffffffffffffffffffffffffffffffffffffffff168173ffffffffffffffffffffffffffffffffffffffff167f8be0079c531659141344cd1fd0a4f28419497f9722a3daafe3b4186f6b6457e060405160405180910390a35050565b600073ffffffffffffffffffffffffffffffffffffffff168273ffffffffffffffffffffffffffffffffffffffff160361140957816040517f5b08ba180000000000000000000000000000000000000000000000000000000081526004016114009190612321565b60405180910390fd5b80600560008573ffffffffffffffffffffffffffffffffffffffff1673ffffffffffffffffffffffffffffffffffffffff16815260200190815260200160002060008473ffffffffffffffffffffffffffffffffffffffff1673ffffffffffffffffffffffffffffffffffffffff16815260200190815260200160002060006101000a81548160ff0219169083151502179055508173ffffffffffffffffffffffffffffffffffffffff168373ffffffffffffffffffffffffffffffffffffffff167f17307eab39ab6107e8899845ad3d59bd9653f200f220920489ca2b5937696c31836040516114fa91906121b0565b60405180910390a3505050565b60008373ffffffffffffffffffffffffffffffffffffffff163b11156116b1578273ffffffffffffffffffffffffffffffffffffffff1663150b7a02868685856040518563ffffffff1660e01b81526004016115669493929190612c25565b6020604051808303816000875af19250505080156115a257506040513d601f19601f8201168201806040525081019061159f9190612c86565b60015b611626573d80600081146115d2576040519150601f19603f3d011682016040523d82523d6000602084013e6115d7565b606091505b50600081510361161e57836040517f64a0ae920000000000000000000000000000000000000000000000000000000081526004016116159190612321565b60405180910390fd5b805160208201fd5b63150b7a0260e01b7bffffffffffffffffffffffffffffffffffffffffffffffffffffffff1916817bffffffffffffffffffffffffffffffffffffffffffffffffffffffff1916146116af57836040517f64a0ae920000000000000000000000000000000000000000000000000000000081526004016116a69190612321565b60405180910390fd5b505b5050505050565b60606116c382610f52565b5060006006600084815260200190815260200160002080546116e49061285c565b80601f01602080910402602001604051908101604052809291908181526020018280546117109061285c565b801561175d5780601f106117325761010080835404028352916020019161175d565b820191906000526020600020905b81548152906001019060200180831161174057829003601f168201915b50505050509050600061176e611bed565b905060008151036117835781925050506117c6565b6000825111156117b85780826040516020016117a0929190612cef565b604051602081830303815290604052925050506117c6565b6117c184611c2a565b925050505b919050565b6117e5828260405180602001604052806000815250611c93565b5050565b806006600084815260200190815260200160002090816118099190612eb5565b507ff8e1a15aba9398e019f0b49df1a4fde98ee17ae345cb5f6b5e2c27f5033e8ce7826040516118399190612484565b60405180910390a15050565b60007f80ac58cd000000000000000000000000000000000000000000000000000000007bffffffffffffffffffffffffffffffffffffffffffffffffffffffff1916827bffffffffffffffffffffffffffffffffffffffffffffffffffffffff1916148061191057507f5b5e139f000000000000000000000000000000000000000000000000000000007bffffffffffffffffffffffffffffffffffffffffffffffffffffffff1916827bffffffffffffffffffffffffffffffffffffffffffffffffffffffff1916145b80611920575061191f82611cb7565b5b9050919050565b60006002600083815260200190815260200160002060009054906101000a900473ffffffffffffffffffffffffffffffffffffffff169050919050565b808061199d5750600073ffffffffffffffffffffffffffffffffffffffff168273ffffffffffffffffffffffffffffffffffffffff1614155b15611ad15760006119ad84610f52565b9050600073ffffffffffffffffffffffffffffffffffffffff168373ffffffffffffffffffffffffffffffffffffffff1614158015611a1857508273ffffffffffffffffffffffffffffffffffffffff168173ffffffffffffffffffffffffffffffffffffffff1614155b8015611a2b5750611a298184610cc7565b155b15611a6d57826040517fa9fbf51f000000000000000000000000000000000000000000000000000000008152600401611a649190612321565b60405180910390fd5b8115611acf57838573ffffffffffffffffffffffffffffffffffffffff168273ffffffffffffffffffffffffffffffffffffffff167f8c5be1e5ebec7d5bd14f71427d1e84f3dd0314c0f7b2291e5b200ac8c7c3b92560405160405180910390a45b505b836004600085815260200190815260200160002060006101000a81548173ffffffffffffffffffffffffffffffffffffffff021916908373ffffffffffffffffffffffffffffffffffffffff16021790555050505050565b611b34838383611d21565b611be857600073ffffffffffffffffffffffffffffffffffffffff168373ffffffffffffffffffffffffffffffffffffffff1603611ba957806040517f7e273289000000000000000000000000000000000000000000000000000000008152600401611ba09190612484565b60405180910390fd5b81816040517f177e802f000000000000000000000000000000000000000000000000000000008152600401611bdf929190612f87565b60405180910390fd5b505050565b60606040518060400160405280602081526020017f68747470733a2f2f6170692e6c6175726161692e696f2f6d657461646174612f815250905090565b6060611c3582610f52565b506000611c40611bed565b90506000815111611c605760405180602001604052806000815250611c8b565b80611c6a84611de2565b604051602001611c7b929190612cef565b6040516020818303038152906040525b915050919050565b611c9d8383611eb0565b611cb2611ca8611017565b6000858585611507565b505050565b60007f01ffc9a7000000000000000000000000000000000000000000000000000000007bffffffffffffffffffffffffffffffffffffffffffffffffffffffff1916827bffffffffffffffffffffffffffffffffffffffffffffffffffffffff1916149050919050565b60008073ffffffffffffffffffffffffffffffffffffffff168373ffffffffffffffffffffffffffffffffffffffff1614158015611dd957508273ffffffffffffffffffffffffffffffffffffffff168473ffffffffffffffffffffffffffffffffffffffff161480611d9a5750611d998484610cc7565b5b80611dd857508273ffffffffffffffffffffffffffffffffffffffff16611dc083610fda565b73ffffffffffffffffffffffffffffffffffffffff16145b5b90509392505050565b606060006001611df184611fa9565b01905060008167ffffffffffffffff811115611e1057611e0f612542565b5b6040519080825280601f01601f191660200182016040528015611e425781602001600182028036833780820191505090505b509050600082602083010190505b600115611ea5578080600190039150507f3031323334353637383961626364656600000000000000000000000000000000600a86061a8153600a8581611e9957611e98612fb0565b5b04945060008503611e50575b819350505050919050565b600073ffffffffffffffffffffffffffffffffffffffff168273ffffffffffffffffffffffffffffffffffffffff1603611f225760006040517f64a0ae92000000000000000000000000000000000000000000000000000000008152600401611f199190612321565b60405180910390fd5b6000611f3083836000611031565b9050600073ffffffffffffffffffffffffffffffffffffffff168173ffffffffffffffffffffffffffffffffffffffff1614611fa45760006040517f73c6ac6e000000000000000000000000000000000000000000000000000000008152600401611f9b9190612321565b60405180910390fd5b505050565b600080600090507a184f03e93ff9f4daa797ed6e38ed64bf6a1f0100000000000000008310612007577a184f03e93ff9f4daa797ed6e38ed64bf6a1f0100000000000000008381611ffd57611ffc612fb0565b5b0492506040810190505b6d04ee2d6d415b85acef81000000008310612044576d04ee2d6d415b85acef8100000000838161203a57612039612fb0565b5b0492506020810190505b662386f26fc10000831061207357662386f26fc10000838161206957612068612fb0565b5b0492506010810190505b6305f5e100831061209c576305f5e100838161209257612091612fb0565b5b0492506008810190505b61271083106120c15761271083816120b7576120b6612fb0565b5b0492506004810190505b606483106120e457606483816120da576120d9612fb0565b5b0492506002810190505b600a83106120f3576001810190505b80915050919050565b6000604051905090565b600080fd5b600080fd5b60007fffffffff0000000000000000000000000000000000000000000000000000000082169050919050565b61214581612110565b811461215057600080fd5b50565b6000813590506121628161213c565b92915050565b60006020828403121561217e5761217d612106565b5b600061218c84828501612153565b91505092915050565b60008115159050919050565b6121aa81612195565b82525050565b60006020820190506121c560008301846121a1565b92915050565b600081519050919050565b600082825260208201905092915050565b60005b838110156122055780820151818401526020810190506121ea565b60008484015250505050565b6000601f19601f8301169050919050565b600061222d826121cb565b61223781856121d6565b93506122478185602086016121e7565b61225081612211565b840191505092915050565b600060208201905081810360008301526122758184612222565b905092915050565b6000819050919050565b6122908161227d565b811461229b57600080fd5b50565b6000813590506122ad81612287565b92915050565b6000602082840312156122c9576122c8612106565b5b60006122d78482850161229e565b91505092915050565b600073ffffffffffffffffffffffffffffffffffffffff82169050919050565b600061230b826122e0565b9050919050565b61231b81612300565b82525050565b60006020820190506123366000830184612312565b92915050565b61234581612300565b811461235057600080fd5b50565b6000813590506123628161233c565b92915050565b6000806040838503121561237f5761237e612106565b5b600061238d85828601612353565b925050602061239e8582860161229e565b9150509250929050565b6000806000606084860312156123c1576123c0612106565b5b60006123cf86828701612353565b93505060206123e086828701612353565b92505060406123f18682870161229e565b9150509250925092565b6000819050919050565b600061242061241b612416846122e0565b6123fb565b6122e0565b9050919050565b600061243282612405565b9050919050565b600061244482612427565b9050919050565b61245481612439565b82525050565b600060208201905061246f600083018461244b565b92915050565b61247e8161227d565b82525050565b60006020820190506124996000830184612475565b92915050565b6000602082840312156124b5576124b4612106565b5b60006124c384828501612353565b91505092915050565b6124d581612195565b81146124e057600080fd5b50565b6000813590506124f2816124cc565b92915050565b6000806040838503121561250f5761250e612106565b5b600061251d85828601612353565b925050602061252e858286016124e3565b9150509250929050565b600080fd5b600080fd5b7f4e487b7100000000000000000000000000000000000000000000000000000000600052604160045260246000fd5b61257a82612211565b810181811067ffffffffffffffff8211171561259957612598612542565b5b80604052505050565b60006125ac6120fc565b90506125b88282612571565b919050565b600067ffffffffffffffff8211156125d8576125d7612542565b5b6125e182612211565b9050602081019050919050565b82818337600083830152505050565b600061261061260b846125bd565b6125a2565b90508281526020810184848401111561262c5761262b61253d565b5b6126378482856125ee565b509392505050565b600082601f83011261265457612653612538565b5b81356126648482602086016125fd565b91505092915050565b6000806000806080858703121561268757612686612106565b5b600061269587828801612353565b94505060206126a687828801612353565b93505060406126b78782880161229e565b925050606085013567ffffffffffffffff8111156126d8576126d761210b565b5b6126e48782880161263f565b91505092959194509250565b600067ffffffffffffffff82111561270b5761270a612542565b5b61271482612211565b9050602081019050919050565b600061273461272f846126f0565b6125a2565b9050828152602081018484840111156127505761274f61253d565b5b61275b8482856125ee565b509392505050565b600082601f83011261277857612777612538565b5b8135612788848260208601612721565b91505092915050565b600080604083850312156127a8576127a7612106565b5b60006127b685828601612353565b925050602083013567ffffffffffffffff8111156127d7576127d661210b565b5b6127e385828601612763565b9150509250929050565b6000806040838503121561280457612803612106565b5b600061281285828601612353565b925050602061282385828601612353565b9150509250929050565b7f4e487b7100000000000000000000000000000000000000000000000000000000600052602260045260246000fd5b6000600282049050600182168061287457607f821691505b6020821081036128875761288661282d565b5b50919050565b60006060820190506128a26000830186612312565b6128af6020830185612475565b6128bc6040830184612312565b949350505050565b7f496e76616c696420746f6b656e20616464726573730000000000000000000000600082015250565b60006128fa6015836121d6565b9150612905826128c4565b602082019050919050565b60006020820190508181036000830152612929816128ed565b9050919050565b7f496e76616c696420726563697069656e74000000000000000000000000000000600082015250565b60006129666011836121d6565b915061297182612930565b602082019050919050565b6000602082019050818103600083015261299581612959565b9050919050565b60006060820190506129b16000830186612312565b6129be6020830185612312565b6129cb6040830184612475565b949350505050565b6000815190506129e2816124cc565b92915050565b6000602082840312156129fe576129fd612106565b5b6000612a0c848285016129d3565b91505092915050565b7f4646207472616e73666572206661696c65640000000000000000000000000000600082015250565b6000612a4b6012836121d6565b9150612a5682612a15565b602082019050919050565b60006020820190508181036000830152612a7a81612a3e565b9050919050565b7f4e487b7100000000000000000000000000000000000000000000000000000000600052601160045260246000fd5b6000612abb8261227d565b91507fffffffffffffffffffffffffffffffffffffffffffffffffffffffffffffffff8203612aed57612aec612a81565b5b600182019050919050565b7f496e76616c696420747265617375727920616464726573730000000000000000600082015250565b6000612b2e6018836121d6565b9150612b3982612af8565b602082019050919050565b60006020820190508181036000830152612b5d81612b21565b9050919050565b7f496e76616c6964206d696e742070726963650000000000000000000000000000600082015250565b6000612b9a6012836121d6565b9150612ba582612b64565b602082019050919050565b60006020820190508181036000830152612bc981612b8d565b9050919050565b600081519050919050565b600082825260208201905092915050565b6000612bf782612bd0565b612c018185612bdb565b9350612c118185602086016121e7565b612c1a81612211565b840191505092915050565b6000608082019050612c3a6000830187612312565b612c476020830186612312565b612c546040830185612475565b8181036060830152612c668184612bec565b905095945050505050565b600081519050612c808161213c565b92915050565b600060208284031215612c9c57612c9b612106565b5b6000612caa84828501612c71565b91505092915050565b600081905092915050565b6000612cc9826121cb565b612cd38185612cb3565b9350612ce38185602086016121e7565b80840191505092915050565b6000612cfb8285612cbe565b9150612d078284612cbe565b91508190509392505050565b60008190508160005260206000209050919050565b60006020601f8301049050919050565b600082821b905092915050565b600060088302612d757fffffffffffffffffffffffffffffffffffffffffffffffffffffffffffffffff82612d38565b612d7f8683612d38565b95508019841693508086168417925050509392505050565b6000612db2612dad612da88461227d565b6123fb565b61227d565b9050919050565b6000819050919050565b612dcc83612d97565b612de0612dd882612db9565b848454612d45565b825550505050565b600090565b612df5612de8565b612e00818484612dc3565b505050565b5b81811015612e2457612e19600082612ded565b600181019050612e06565b5050565b601f821115612e6957612e3a81612d13565b612e4384612d28565b81016020851015612e52578190505b612e66612e5e85612d28565b830182612e05565b50505b505050565b600082821c905092915050565b6000612e8c60001984600802612e6e565b1980831691505092915050565b6000612ea58383612e7b565b9150826002028217905092915050565b612ebe826121cb565b67ffffffffffffffff811115612ed757612ed6612542565b5b612ee1825461285c565b612eec828285612e28565b600060209050601f831160018114612f1f5760008415612f0d578287015190505b612f178582612e99565b865550612f7f565b601f198416612f2d86612d13565b60005b82811015612f5557848901518255600182019150602085019450602081019050612f30565b86831015612f725784890151612f6e601f891682612e7b565b8355505b6001600288020188555050505b505050505050565b6000604082019050612f9c6000830185612312565b612fa96020830184612475565b9392505050565b7f4e487b7100000000000000000000000000000000000000000000000000000000600052601260045260246000fdfea2646970667358221220123637f3c9536d2def9a5882c3cd4f036a5e6a22c56bac8d247478dc2ef91cff64736f6c634300081b0033",
  "linkReferences": {},
  "deployedLinkReferences": {}
}